{
	"DeCertify.sol": {
		"DeCertify": {
			"abi": [
				{
					"inputs": [
						{
							"internalType": "string",
							"name": "_instituteName",
							"type": "string"
						},
						{
							"internalType": "address",
							"name": "_instituteWallet",
							"type": "address"
						},
						{
							"internalType": "string",
							"name": "_instituteCourse",
							"type": "string"
						}
					],
					"name": "addInstitute",
					"outputs": [],
					"stateMutability": "nonpayable",
					"type": "function"
				},
				{
					"inputs": [
						{
							"internalType": "string",
							"name": "_issuerId",
							"type": "string"
						},
						{
							"internalType": "string",
							"name": "_issuerName",
							"type": "string"
						}
					],
					"name": "addIssuer",
					"outputs": [],
					"stateMutability": "nonpayable",
					"type": "function"
				},
				{
					"inputs": [
						{
							"internalType": "string",
							"name": "",
							"type": "string"
						}
					],
					"name": "idToIssuerName",
					"outputs": [
						{
							"internalType": "string",
							"name": "",
							"type": "string"
						}
					],
					"stateMutability": "view",
					"type": "function"
				},
				{
					"inputs": [
						{
							"internalType": "uint256",
							"name": "",
							"type": "uint256"
						}
					],
					"name": "listOfInstitutes",
					"outputs": [
						{
							"internalType": "string",
							"name": "instituteName",
							"type": "string"
						},
						{
							"internalType": "address",
							"name": "instituteWallet",
							"type": "address"
						},
						{
							"internalType": "string",
							"name": "instituteCourse",
							"type": "string"
						}
					],
					"stateMutability": "view",
					"type": "function"
				},
				{
					"inputs": [
						{
							"internalType": "uint256",
							"name": "",
							"type": "uint256"
						}
					],
					"name": "listOfIssuers",
					"outputs": [
						{
							"internalType": "string",
							"name": "issuerId",
							"type": "string"
						},
						{
							"internalType": "string",
							"name": "issuerName",
							"type": "string"
						}
					],
					"stateMutability": "view",
					"type": "function"
				}
			],
			"devdoc": {
				"kind": "dev",
				"methods": {},
				"version": 1
			},
			"evm": {
				"assembly": "    /* \"DeCertify.sol\":59:1015  contract DeCertify{... */\n  mstore(0x40, 0x80)\n  callvalue\n  dup1\n  iszero\n  tag_1\n  jumpi\n  0x00\n  dup1\n  revert\ntag_1:\n  pop\n  dataSize(sub_0)\n  dup1\n  dataOffset(sub_0)\n  0x00\n  codecopy\n  0x00\n  return\nstop\n\nsub_0: assembly {\n        /* \"DeCertify.sol\":59:1015  contract DeCertify{... */\n      mstore(0x40, 0x80)\n      callvalue\n      dup1\n      iszero\n      tag_1\n      jumpi\n      0x00\n      dup1\n      revert\n    tag_1:\n      pop\n      jumpi(tag_2, lt(calldatasize, 0x04))\n      shr(0xe0, calldataload(0x00))\n      dup1\n      0x1b258fc0\n      eq\n      tag_3\n      jumpi\n      dup1\n      0x8f097415\n      eq\n      tag_4\n      jumpi\n      dup1\n      0xbf717b7a\n      eq\n      tag_5\n      jumpi\n      dup1\n      0xd186b1b0\n      eq\n      tag_6\n      jumpi\n      dup1\n      0xf1e64252\n      eq\n      tag_7\n      jumpi\n    tag_2:\n      0x00\n      dup1\n      revert\n        /* \"DeCertify.sol\":368:403  institute[] public listOfInstitutes */\n    tag_3:\n      tag_8\n      0x04\n      dup1\n      calldatasize\n      sub\n      dup2\n      add\n      swap1\n      tag_9\n      swap2\n      swap1\n      tag_10\n      jump\t// in\n    tag_9:\n      tag_11\n      jump\t// in\n    tag_8:\n      mload(0x40)\n      tag_12\n      swap4\n      swap3\n      swap2\n      swap1\n      tag_13\n      jump\t// in\n    tag_12:\n      mload(0x40)\n      dup1\n      swap2\n      sub\n      swap1\n      return\n        /* \"DeCertify.sol\":590:808  function addInstitute(string memory _instituteName, address _instituteWallet, string memory _instituteCourse) public{... */\n    tag_4:\n      tag_14\n      0x04\n      dup1\n      calldatasize\n      sub\n      dup2\n      add\n      swap1\n      tag_15\n      swap2\n      swap1\n      tag_16\n      jump\t// in\n    tag_15:\n      tag_17\n      jump\t// in\n    tag_14:\n      stop\n        /* \"DeCertify.sol\":816:1012  function addIssuer(string memory _issuerId, string memory _issuerName) public{... */\n    tag_5:\n      tag_18\n      0x04\n      dup1\n      calldatasize\n      sub\n      dup2\n      add\n      swap1\n      tag_19\n      swap2\n      swap1\n      tag_20\n      jump\t// in\n    tag_19:\n      tag_21\n      jump\t// in\n    tag_18:\n      stop\n        /* \"DeCertify.sol\":534:581  mapping(string => string) public idToIssuerName */\n    tag_6:\n      tag_22\n      0x04\n      dup1\n      calldatasize\n      sub\n      dup2\n      add\n      swap1\n      tag_23\n      swap2\n      swap1\n      tag_24\n      jump\t// in\n    tag_23:\n      tag_25\n      jump\t// in\n    tag_22:\n      mload(0x40)\n      tag_26\n      swap2\n      swap1\n      tag_27\n      jump\t// in\n    tag_26:\n      mload(0x40)\n      dup1\n      swap2\n      sub\n      swap1\n      return\n        /* \"DeCertify.sol\":496:525  issuer[] public listOfIssuers */\n    tag_7:\n      tag_28\n      0x04\n      dup1\n      calldatasize\n      sub\n      dup2\n      add\n      swap1\n      tag_29\n      swap2\n      swap1\n      tag_10\n      jump\t// in\n    tag_29:\n      tag_30\n      jump\t// in\n    tag_28:\n      mload(0x40)\n      tag_31\n      swap3\n      swap2\n      swap1\n      tag_32\n      jump\t// in\n    tag_31:\n      mload(0x40)\n      dup1\n      swap2\n      sub\n      swap1\n      return\n        /* \"DeCertify.sol\":368:403  institute[] public listOfInstitutes */\n    tag_11:\n      0x00\n      dup2\n      dup2\n      sload\n      dup2\n      lt\n      tag_33\n      jumpi\n      0x00\n      dup1\n      revert\n    tag_33:\n      swap1\n      0x00\n      mstore\n      keccak256(0x00, 0x20)\n      swap1\n      0x03\n      mul\n      add\n      0x00\n      swap2\n      pop\n      swap1\n      pop\n      dup1\n      0x00\n      add\n      dup1\n      sload\n      tag_35\n      swap1\n      tag_36\n      jump\t// in\n    tag_35:\n      dup1\n      0x1f\n      add\n      0x20\n      dup1\n      swap2\n      div\n      mul\n      0x20\n      add\n      mload(0x40)\n      swap1\n      dup2\n      add\n      0x40\n      mstore\n      dup1\n      swap3\n      swap2\n      swap1\n      dup2\n      dup2\n      mstore\n      0x20\n      add\n      dup3\n      dup1\n      sload\n      tag_37\n      swap1\n      tag_36\n      jump\t// in\n    tag_37:\n      dup1\n      iszero\n      tag_38\n      jumpi\n      dup1\n      0x1f\n      lt\n      tag_39\n      jumpi\n      0x0100\n      dup1\n      dup4\n      sload\n      div\n      mul\n      dup4\n      mstore\n      swap2\n      0x20\n      add\n      swap2\n      jump(tag_38)\n    tag_39:\n      dup3\n      add\n      swap2\n      swap1\n      0x00\n      mstore\n      keccak256(0x00, 0x20)\n      swap1\n    tag_40:\n      dup2\n      sload\n      dup2\n      mstore\n      swap1\n      0x01\n      add\n      swap1\n      0x20\n      add\n      dup1\n      dup4\n      gt\n      tag_40\n      jumpi\n      dup3\n      swap1\n      sub\n      0x1f\n      and\n      dup3\n      add\n      swap2\n    tag_38:\n      pop\n      pop\n      pop\n      pop\n      pop\n      swap1\n      dup1\n      0x01\n      add\n      0x00\n      swap1\n      sload\n      swap1\n      0x0100\n      exp\n      swap1\n      div\n      0xffffffffffffffffffffffffffffffffffffffff\n      and\n      swap1\n      dup1\n      0x02\n      add\n      dup1\n      sload\n      tag_41\n      swap1\n      tag_36\n      jump\t// in\n    tag_41:\n      dup1\n      0x1f\n      add\n      0x20\n      dup1\n      swap2\n      div\n      mul\n      0x20\n      add\n      mload(0x40)\n      swap1\n      dup2\n      add\n      0x40\n      mstore\n      dup1\n      swap3\n      swap2\n      swap1\n      dup2\n      dup2\n      mstore\n      0x20\n      add\n      dup3\n      dup1\n      sload\n      tag_42\n      swap1\n      tag_36\n      jump\t// in\n    tag_42:\n      dup1\n      iszero\n      tag_43\n      jumpi\n      dup1\n      0x1f\n      lt\n      tag_44\n      jumpi\n      0x0100\n      dup1\n      dup4\n      sload\n      div\n      mul\n      dup4\n      mstore\n      swap2\n      0x20\n      add\n      swap2\n      jump(tag_43)\n    tag_44:\n      dup3\n      add\n      swap2\n      swap1\n      0x00\n      mstore\n      keccak256(0x00, 0x20)\n      swap1\n    tag_45:\n      dup2\n      sload\n      dup2\n      mstore\n      swap1\n      0x01\n      add\n      swap1\n      0x20\n      add\n      dup1\n      dup4\n      gt\n      tag_45\n      jumpi\n      dup3\n      swap1\n      sub\n      0x1f\n      and\n      dup3\n      add\n      swap2\n    tag_43:\n      pop\n      pop\n      pop\n      pop\n      pop\n      swap1\n      pop\n      dup4\n      jump\t// out\n        /* \"DeCertify.sol\":590:808  function addInstitute(string memory _instituteName, address _instituteWallet, string memory _instituteCourse) public{... */\n    tag_17:\n        /* \"DeCertify.sol\":717:733  listOfInstitutes */\n      0x00\n        /* \"DeCertify.sol\":740:799  institute(_instituteName,_instituteWallet,_instituteCourse) */\n      mload(0x40)\n      dup1\n      0x60\n      add\n      0x40\n      mstore\n      dup1\n        /* \"DeCertify.sol\":750:764  _instituteName */\n      dup6\n        /* \"DeCertify.sol\":740:799  institute(_instituteName,_instituteWallet,_instituteCourse) */\n      dup2\n      mstore\n      0x20\n      add\n        /* \"DeCertify.sol\":765:781  _instituteWallet */\n      dup5\n        /* \"DeCertify.sol\":740:799  institute(_instituteName,_instituteWallet,_instituteCourse) */\n      0xffffffffffffffffffffffffffffffffffffffff\n      and\n      dup2\n      mstore\n      0x20\n      add\n        /* \"DeCertify.sol\":782:798  _instituteCourse */\n      dup4\n        /* \"DeCertify.sol\":740:799  institute(_instituteName,_instituteWallet,_instituteCourse) */\n      dup2\n      mstore\n      pop\n        /* \"DeCertify.sol\":717:800  listOfInstitutes.push( institute(_instituteName,_instituteWallet,_instituteCourse)) */\n      swap1\n      dup1\n      0x01\n      dup2\n      sload\n      add\n      dup1\n      dup3\n      sstore\n      dup1\n      swap2\n      pop\n      pop\n      0x01\n      swap1\n      sub\n      swap1\n      0x00\n      mstore\n      keccak256(0x00, 0x20)\n      swap1\n      0x03\n      mul\n      add\n      0x00\n      swap1\n      swap2\n      swap1\n      swap2\n      swap1\n      swap2\n      pop\n      0x00\n      dup3\n      add\n      mload\n      dup2\n      0x00\n      add\n      swap1\n      dup2\n      tag_48\n      swap2\n      swap1\n      tag_49\n      jump\t// in\n    tag_48:\n      pop\n      0x20\n      dup3\n      add\n      mload\n      dup2\n      0x01\n      add\n      exp(0x0100, 0x00)\n      dup2\n      sload\n      dup2\n      0xffffffffffffffffffffffffffffffffffffffff\n      mul\n      not\n      and\n      swap1\n      dup4\n      0xffffffffffffffffffffffffffffffffffffffff\n      and\n      mul\n      or\n      swap1\n      sstore\n      pop\n      0x40\n      dup3\n      add\n      mload\n      dup2\n      0x02\n      add\n      swap1\n      dup2\n      tag_50\n      swap2\n      swap1\n      tag_49\n      jump\t// in\n    tag_50:\n      pop\n      pop\n      pop\n        /* \"DeCertify.sol\":590:808  function addInstitute(string memory _instituteName, address _instituteWallet, string memory _instituteCourse) public{... */\n      pop\n      pop\n      pop\n      jump\t// out\n        /* \"DeCertify.sol\":816:1012  function addIssuer(string memory _issuerId, string memory _issuerName) public{... */\n    tag_21:\n        /* \"DeCertify.sol\":904:917  listOfIssuers */\n      0x01\n        /* \"DeCertify.sol\":924:953  issuer(_issuerId,_issuerName) */\n      mload(0x40)\n      dup1\n      0x40\n      add\n      0x40\n      mstore\n      dup1\n        /* \"DeCertify.sol\":931:940  _issuerId */\n      dup5\n        /* \"DeCertify.sol\":924:953  issuer(_issuerId,_issuerName) */\n      dup2\n      mstore\n      0x20\n      add\n        /* \"DeCertify.sol\":941:952  _issuerName */\n      dup4\n        /* \"DeCertify.sol\":924:953  issuer(_issuerId,_issuerName) */\n      dup2\n      mstore\n      pop\n        /* \"DeCertify.sol\":904:954  listOfIssuers.push( issuer(_issuerId,_issuerName)) */\n      swap1\n      dup1\n      0x01\n      dup2\n      sload\n      add\n      dup1\n      dup3\n      sstore\n      dup1\n      swap2\n      pop\n      pop\n      0x01\n      swap1\n      sub\n      swap1\n      0x00\n      mstore\n      keccak256(0x00, 0x20)\n      swap1\n      0x02\n      mul\n      add\n      0x00\n      swap1\n      swap2\n      swap1\n      swap2\n      swap1\n      swap2\n      pop\n      0x00\n      dup3\n      add\n      mload\n      dup2\n      0x00\n      add\n      swap1\n      dup2\n      tag_53\n      swap2\n      swap1\n      tag_49\n      jump\t// in\n    tag_53:\n      pop\n      0x20\n      dup3\n      add\n      mload\n      dup2\n      0x01\n      add\n      swap1\n      dup2\n      tag_54\n      swap2\n      swap1\n      tag_49\n      jump\t// in\n    tag_54:\n      pop\n      pop\n      pop\n        /* \"DeCertify.sol\":993:1004  _issuerName */\n      dup1\n        /* \"DeCertify.sol\":965:979  idToIssuerName */\n      0x02\n        /* \"DeCertify.sol\":980:989  _issuerId */\n      dup4\n        /* \"DeCertify.sol\":965:990  idToIssuerName[_issuerId] */\n      mload(0x40)\n      tag_55\n      swap2\n      swap1\n      tag_56\n      jump\t// in\n    tag_55:\n      swap1\n      dup2\n      mstore\n      0x20\n      add\n      mload(0x40)\n      dup1\n      swap2\n      sub\n      swap1\n      keccak256\n        /* \"DeCertify.sol\":965:1004  idToIssuerName[_issuerId] = _issuerName */\n      swap1\n      dup2\n      tag_57\n      swap2\n      swap1\n      tag_49\n      jump\t// in\n    tag_57:\n      pop\n        /* \"DeCertify.sol\":816:1012  function addIssuer(string memory _issuerId, string memory _issuerName) public{... */\n      pop\n      pop\n      jump\t// out\n        /* \"DeCertify.sol\":534:581  mapping(string => string) public idToIssuerName */\n    tag_25:\n      0x02\n      dup2\n      dup1\n      mload\n      0x20\n      dup2\n      add\n      dup3\n      add\n      dup1\n      mload\n      dup5\n      dup3\n      mstore\n      0x20\n      dup4\n      add\n      0x20\n      dup6\n      add\n      keccak256\n      dup2\n      dup4\n      mstore\n      dup1\n      swap6\n      pop\n      pop\n      pop\n      pop\n      pop\n      pop\n      0x00\n      swap2\n      pop\n      swap1\n      pop\n      dup1\n      sload\n      tag_58\n      swap1\n      tag_36\n      jump\t// in\n    tag_58:\n      dup1\n      0x1f\n      add\n      0x20\n      dup1\n      swap2\n      div\n      mul\n      0x20\n      add\n      mload(0x40)\n      swap1\n      dup2\n      add\n      0x40\n      mstore\n      dup1\n      swap3\n      swap2\n      swap1\n      dup2\n      dup2\n      mstore\n      0x20\n      add\n      dup3\n      dup1\n      sload\n      tag_59\n      swap1\n      tag_36\n      jump\t// in\n    tag_59:\n      dup1\n      iszero\n      tag_60\n      jumpi\n      dup1\n      0x1f\n      lt\n      tag_61\n      jumpi\n      0x0100\n      dup1\n      dup4\n      sload\n      div\n      mul\n      dup4\n      mstore\n      swap2\n      0x20\n      add\n      swap2\n      jump(tag_60)\n    tag_61:\n      dup3\n      add\n      swap2\n      swap1\n      0x00\n      mstore\n      keccak256(0x00, 0x20)\n      swap1\n    tag_62:\n      dup2\n      sload\n      dup2\n      mstore\n      swap1\n      0x01\n      add\n      swap1\n      0x20\n      add\n      dup1\n      dup4\n      gt\n      tag_62\n      jumpi\n      dup3\n      swap1\n      sub\n      0x1f\n      and\n      dup3\n      add\n      swap2\n    tag_60:\n      pop\n      pop\n      pop\n      pop\n      pop\n      dup2\n      jump\t// out\n        /* \"DeCertify.sol\":496:525  issuer[] public listOfIssuers */\n    tag_30:\n      0x01\n      dup2\n      dup2\n      sload\n      dup2\n      lt\n      tag_63\n      jumpi\n      0x00\n      dup1\n      revert\n    tag_63:\n      swap1\n      0x00\n      mstore\n      keccak256(0x00, 0x20)\n      swap1\n      0x02\n      mul\n      add\n      0x00\n      swap2\n      pop\n      swap1\n      pop\n      dup1\n      0x00\n      add\n      dup1\n      sload\n      tag_65\n      swap1\n      tag_36\n      jump\t// in\n    tag_65:\n      dup1\n      0x1f\n      add\n      0x20\n      dup1\n      swap2\n      div\n      mul\n      0x20\n      add\n      mload(0x40)\n      swap1\n      dup2\n      add\n      0x40\n      mstore\n      dup1\n      swap3\n      swap2\n      swap1\n      dup2\n      dup2\n      mstore\n      0x20\n      add\n      dup3\n      dup1\n      sload\n      tag_66\n      swap1\n      tag_36\n      jump\t// in\n    tag_66:\n      dup1\n      iszero\n      tag_67\n      jumpi\n      dup1\n      0x1f\n      lt\n      tag_68\n      jumpi\n      0x0100\n      dup1\n      dup4\n      sload\n      div\n      mul\n      dup4\n      mstore\n      swap2\n      0x20\n      add\n      swap2\n      jump(tag_67)\n    tag_68:\n      dup3\n      add\n      swap2\n      swap1\n      0x00\n      mstore\n      keccak256(0x00, 0x20)\n      swap1\n    tag_69:\n      dup2\n      sload\n      dup2\n      mstore\n      swap1\n      0x01\n      add\n      swap1\n      0x20\n      add\n      dup1\n      dup4\n      gt\n      tag_69\n      jumpi\n      dup3\n      swap1\n      sub\n      0x1f\n      and\n      dup3\n      add\n      swap2\n    tag_67:\n      pop\n      pop\n      pop\n      pop\n      pop\n      swap1\n      dup1\n      0x01\n      add\n      dup1\n      sload\n      tag_70\n      swap1\n      tag_36\n      jump\t// in\n    tag_70:\n      dup1\n      0x1f\n      add\n      0x20\n      dup1\n      swap2\n      div\n      mul\n      0x20\n      add\n      mload(0x40)\n      swap1\n      dup2\n      add\n      0x40\n      mstore\n      dup1\n      swap3\n      swap2\n      swap1\n      dup2\n      dup2\n      mstore\n      0x20\n      add\n      dup3\n      dup1\n      sload\n      tag_71\n      swap1\n      tag_36\n      jump\t// in\n    tag_71:\n      dup1\n      iszero\n      tag_72\n      jumpi\n      dup1\n      0x1f\n      lt\n      tag_73\n      jumpi\n      0x0100\n      dup1\n      dup4\n      sload\n      div\n      mul\n      dup4\n      mstore\n      swap2\n      0x20\n      add\n      swap2\n      jump(tag_72)\n    tag_73:\n      dup3\n      add\n      swap2\n      swap1\n      0x00\n      mstore\n      keccak256(0x00, 0x20)\n      swap1\n    tag_74:\n      dup2\n      sload\n      dup2\n      mstore\n      swap1\n      0x01\n      add\n      swap1\n      0x20\n      add\n      dup1\n      dup4\n      gt\n      tag_74\n      jumpi\n      dup3\n      swap1\n      sub\n      0x1f\n      and\n      dup3\n      add\n      swap2\n    tag_72:\n      pop\n      pop\n      pop\n      pop\n      pop\n      swap1\n      pop\n      dup3\n      jump\t// out\n        /* \"#utility.yul\":7:82   */\n    tag_75:\n        /* \"#utility.yul\":40:46   */\n      0x00\n        /* \"#utility.yul\":73:75   */\n      0x40\n        /* \"#utility.yul\":67:76   */\n      mload\n        /* \"#utility.yul\":57:76   */\n      swap1\n      pop\n        /* \"#utility.yul\":7:82   */\n      swap1\n      jump\t// out\n        /* \"#utility.yul\":88:205   */\n    tag_76:\n        /* \"#utility.yul\":197:198   */\n      0x00\n        /* \"#utility.yul\":194:195   */\n      dup1\n        /* \"#utility.yul\":187:199   */\n      revert\n        /* \"#utility.yul\":211:328   */\n    tag_77:\n        /* \"#utility.yul\":320:321   */\n      0x00\n        /* \"#utility.yul\":317:318   */\n      dup1\n        /* \"#utility.yul\":310:322   */\n      revert\n        /* \"#utility.yul\":334:411   */\n    tag_78:\n        /* \"#utility.yul\":371:378   */\n      0x00\n        /* \"#utility.yul\":400:405   */\n      dup2\n        /* \"#utility.yul\":389:405   */\n      swap1\n      pop\n        /* \"#utility.yul\":334:411   */\n      swap2\n      swap1\n      pop\n      jump\t// out\n        /* \"#utility.yul\":417:539   */\n    tag_79:\n        /* \"#utility.yul\":490:514   */\n      tag_124\n        /* \"#utility.yul\":508:513   */\n      dup2\n        /* \"#utility.yul\":490:514   */\n      tag_78\n      jump\t// in\n    tag_124:\n        /* \"#utility.yul\":483:488   */\n      dup2\n        /* \"#utility.yul\":480:515   */\n      eq\n        /* \"#utility.yul\":470:533   */\n      tag_125\n      jumpi\n        /* \"#utility.yul\":529:530   */\n      0x00\n        /* \"#utility.yul\":526:527   */\n      dup1\n        /* \"#utility.yul\":519:531   */\n      revert\n        /* \"#utility.yul\":470:533   */\n    tag_125:\n        /* \"#utility.yul\":417:539   */\n      pop\n      jump\t// out\n        /* \"#utility.yul\":545:684   */\n    tag_80:\n        /* \"#utility.yul\":591:596   */\n      0x00\n        /* \"#utility.yul\":629:635   */\n      dup2\n        /* \"#utility.yul\":616:636   */\n      calldataload\n        /* \"#utility.yul\":607:636   */\n      swap1\n      pop\n        /* \"#utility.yul\":645:678   */\n      tag_127\n        /* \"#utility.yul\":672:677   */\n      dup2\n        /* \"#utility.yul\":645:678   */\n      tag_79\n      jump\t// in\n    tag_127:\n        /* \"#utility.yul\":545:684   */\n      swap3\n      swap2\n      pop\n      pop\n      jump\t// out\n        /* \"#utility.yul\":690:1019   */\n    tag_10:\n        /* \"#utility.yul\":749:755   */\n      0x00\n        /* \"#utility.yul\":798:800   */\n      0x20\n        /* \"#utility.yul\":786:795   */\n      dup3\n        /* \"#utility.yul\":777:784   */\n      dup5\n        /* \"#utility.yul\":773:796   */\n      sub\n        /* \"#utility.yul\":769:801   */\n      slt\n        /* \"#utility.yul\":766:885   */\n      iszero\n      tag_129\n      jumpi\n        /* \"#utility.yul\":804:883   */\n      tag_130\n      tag_76\n      jump\t// in\n    tag_130:\n        /* \"#utility.yul\":766:885   */\n    tag_129:\n        /* \"#utility.yul\":924:925   */\n      0x00\n        /* \"#utility.yul\":949:1002   */\n      tag_131\n        /* \"#utility.yul\":994:1001   */\n      dup5\n        /* \"#utility.yul\":985:991   */\n      dup3\n        /* \"#utility.yul\":974:983   */\n      dup6\n        /* \"#utility.yul\":970:992   */\n      add\n        /* \"#utility.yul\":949:1002   */\n      tag_80\n      jump\t// in\n    tag_131:\n        /* \"#utility.yul\":939:1002   */\n      swap2\n      pop\n        /* \"#utility.yul\":895:1012   */\n      pop\n        /* \"#utility.yul\":690:1019   */\n      swap3\n      swap2\n      pop\n      pop\n      jump\t// out\n        /* \"#utility.yul\":1025:1124   */\n    tag_81:\n        /* \"#utility.yul\":1077:1083   */\n      0x00\n        /* \"#utility.yul\":1111:1116   */\n      dup2\n        /* \"#utility.yul\":1105:1117   */\n      mload\n        /* \"#utility.yul\":1095:1117   */\n      swap1\n      pop\n        /* \"#utility.yul\":1025:1124   */\n      swap2\n      swap1\n      pop\n      jump\t// out\n        /* \"#utility.yul\":1130:1299   */\n    tag_82:\n        /* \"#utility.yul\":1214:1225   */\n      0x00\n        /* \"#utility.yul\":1248:1254   */\n      dup3\n        /* \"#utility.yul\":1243:1246   */\n      dup3\n        /* \"#utility.yul\":1236:1255   */\n      mstore\n        /* \"#utility.yul\":1288:1292   */\n      0x20\n        /* \"#utility.yul\":1283:1286   */\n      dup3\n        /* \"#utility.yul\":1279:1293   */\n      add\n        /* \"#utility.yul\":1264:1293   */\n      swap1\n      pop\n        /* \"#utility.yul\":1130:1299   */\n      swap3\n      swap2\n      pop\n      pop\n      jump\t// out\n        /* \"#utility.yul\":1305:1551   */\n    tag_83:\n        /* \"#utility.yul\":1386:1387   */\n      0x00\n        /* \"#utility.yul\":1396:1509   */\n    tag_135:\n        /* \"#utility.yul\":1410:1416   */\n      dup4\n        /* \"#utility.yul\":1407:1408   */\n      dup2\n        /* \"#utility.yul\":1404:1417   */\n      lt\n        /* \"#utility.yul\":1396:1509   */\n      iszero\n      tag_137\n      jumpi\n        /* \"#utility.yul\":1495:1496   */\n      dup1\n        /* \"#utility.yul\":1490:1493   */\n      dup3\n        /* \"#utility.yul\":1486:1497   */\n      add\n        /* \"#utility.yul\":1480:1498   */\n      mload\n        /* \"#utility.yul\":1476:1477   */\n      dup2\n        /* \"#utility.yul\":1471:1474   */\n      dup5\n        /* \"#utility.yul\":1467:1478   */\n      add\n        /* \"#utility.yul\":1460:1499   */\n      mstore\n        /* \"#utility.yul\":1432:1434   */\n      0x20\n        /* \"#utility.yul\":1429:1430   */\n      dup2\n        /* \"#utility.yul\":1425:1435   */\n      add\n        /* \"#utility.yul\":1420:1435   */\n      swap1\n      pop\n        /* \"#utility.yul\":1396:1509   */\n      jump(tag_135)\n    tag_137:\n        /* \"#utility.yul\":1543:1544   */\n      0x00\n        /* \"#utility.yul\":1534:1540   */\n      dup5\n        /* \"#utility.yul\":1529:1532   */\n      dup5\n        /* \"#utility.yul\":1525:1541   */\n      add\n        /* \"#utility.yul\":1518:1545   */\n      mstore\n        /* \"#utility.yul\":1367:1551   */\n      pop\n        /* \"#utility.yul\":1305:1551   */\n      pop\n      pop\n      pop\n      jump\t// out\n        /* \"#utility.yul\":1557:1659   */\n    tag_84:\n        /* \"#utility.yul\":1598:1604   */\n      0x00\n        /* \"#utility.yul\":1649:1651   */\n      0x1f\n        /* \"#utility.yul\":1645:1652   */\n      not\n        /* \"#utility.yul\":1640:1642   */\n      0x1f\n        /* \"#utility.yul\":1633:1638   */\n      dup4\n        /* \"#utility.yul\":1629:1643   */\n      add\n        /* \"#utility.yul\":1625:1653   */\n      and\n        /* \"#utility.yul\":1615:1653   */\n      swap1\n      pop\n        /* \"#utility.yul\":1557:1659   */\n      swap2\n      swap1\n      pop\n      jump\t// out\n        /* \"#utility.yul\":1665:2042   */\n    tag_85:\n        /* \"#utility.yul\":1753:1756   */\n      0x00\n        /* \"#utility.yul\":1781:1820   */\n      tag_140\n        /* \"#utility.yul\":1814:1819   */\n      dup3\n        /* \"#utility.yul\":1781:1820   */\n      tag_81\n      jump\t// in\n    tag_140:\n        /* \"#utility.yul\":1836:1907   */\n      tag_141\n        /* \"#utility.yul\":1900:1906   */\n      dup2\n        /* \"#utility.yul\":1895:1898   */\n      dup6\n        /* \"#utility.yul\":1836:1907   */\n      tag_82\n      jump\t// in\n    tag_141:\n        /* \"#utility.yul\":1829:1907   */\n      swap4\n      pop\n        /* \"#utility.yul\":1916:1981   */\n      tag_142\n        /* \"#utility.yul\":1974:1980   */\n      dup2\n        /* \"#utility.yul\":1969:1972   */\n      dup6\n        /* \"#utility.yul\":1962:1966   */\n      0x20\n        /* \"#utility.yul\":1955:1960   */\n      dup7\n        /* \"#utility.yul\":1951:1967   */\n      add\n        /* \"#utility.yul\":1916:1981   */\n      tag_83\n      jump\t// in\n    tag_142:\n        /* \"#utility.yul\":2006:2035   */\n      tag_143\n        /* \"#utility.yul\":2028:2034   */\n      dup2\n        /* \"#utility.yul\":2006:2035   */\n      tag_84\n      jump\t// in\n    tag_143:\n        /* \"#utility.yul\":2001:2004   */\n      dup5\n        /* \"#utility.yul\":1997:2036   */\n      add\n        /* \"#utility.yul\":1990:2036   */\n      swap2\n      pop\n        /* \"#utility.yul\":1757:2042   */\n      pop\n        /* \"#utility.yul\":1665:2042   */\n      swap3\n      swap2\n      pop\n      pop\n      jump\t// out\n        /* \"#utility.yul\":2048:2174   */\n    tag_86:\n        /* \"#utility.yul\":2085:2092   */\n      0x00\n        /* \"#utility.yul\":2125:2167   */\n      0xffffffffffffffffffffffffffffffffffffffff\n        /* \"#utility.yul\":2118:2123   */\n      dup3\n        /* \"#utility.yul\":2114:2168   */\n      and\n        /* \"#utility.yul\":2103:2168   */\n      swap1\n      pop\n        /* \"#utility.yul\":2048:2174   */\n      swap2\n      swap1\n      pop\n      jump\t// out\n        /* \"#utility.yul\":2180:2276   */\n    tag_87:\n        /* \"#utility.yul\":2217:2224   */\n      0x00\n        /* \"#utility.yul\":2246:2270   */\n      tag_146\n        /* \"#utility.yul\":2264:2269   */\n      dup3\n        /* \"#utility.yul\":2246:2270   */\n      tag_86\n      jump\t// in\n    tag_146:\n        /* \"#utility.yul\":2235:2270   */\n      swap1\n      pop\n        /* \"#utility.yul\":2180:2276   */\n      swap2\n      swap1\n      pop\n      jump\t// out\n        /* \"#utility.yul\":2282:2400   */\n    tag_88:\n        /* \"#utility.yul\":2369:2393   */\n      tag_148\n        /* \"#utility.yul\":2387:2392   */\n      dup2\n        /* \"#utility.yul\":2369:2393   */\n      tag_87\n      jump\t// in\n    tag_148:\n        /* \"#utility.yul\":2364:2367   */\n      dup3\n        /* \"#utility.yul\":2357:2394   */\n      mstore\n        /* \"#utility.yul\":2282:2400   */\n      pop\n      pop\n      jump\t// out\n        /* \"#utility.yul\":2406:3030   */\n    tag_13:\n        /* \"#utility.yul\":2595:2599   */\n      0x00\n        /* \"#utility.yul\":2633:2635   */\n      0x60\n        /* \"#utility.yul\":2622:2631   */\n      dup3\n        /* \"#utility.yul\":2618:2636   */\n      add\n        /* \"#utility.yul\":2610:2636   */\n      swap1\n      pop\n        /* \"#utility.yul\":2682:2691   */\n      dup2\n        /* \"#utility.yul\":2676:2680   */\n      dup2\n        /* \"#utility.yul\":2672:2692   */\n      sub\n        /* \"#utility.yul\":2668:2669   */\n      0x00\n        /* \"#utility.yul\":2657:2666   */\n      dup4\n        /* \"#utility.yul\":2653:2670   */\n      add\n        /* \"#utility.yul\":2646:2693   */\n      mstore\n        /* \"#utility.yul\":2710:2788   */\n      tag_150\n        /* \"#utility.yul\":2783:2787   */\n      dup2\n        /* \"#utility.yul\":2774:2780   */\n      dup7\n        /* \"#utility.yul\":2710:2788   */\n      tag_85\n      jump\t// in\n    tag_150:\n        /* \"#utility.yul\":2702:2788   */\n      swap1\n      pop\n        /* \"#utility.yul\":2798:2870   */\n      tag_151\n        /* \"#utility.yul\":2866:2868   */\n      0x20\n        /* \"#utility.yul\":2855:2864   */\n      dup4\n        /* \"#utility.yul\":2851:2869   */\n      add\n        /* \"#utility.yul\":2842:2848   */\n      dup6\n        /* \"#utility.yul\":2798:2870   */\n      tag_88\n      jump\t// in\n    tag_151:\n        /* \"#utility.yul\":2917:2926   */\n      dup2\n        /* \"#utility.yul\":2911:2915   */\n      dup2\n        /* \"#utility.yul\":2907:2927   */\n      sub\n        /* \"#utility.yul\":2902:2904   */\n      0x40\n        /* \"#utility.yul\":2891:2900   */\n      dup4\n        /* \"#utility.yul\":2887:2905   */\n      add\n        /* \"#utility.yul\":2880:2928   */\n      mstore\n        /* \"#utility.yul\":2945:3023   */\n      tag_152\n        /* \"#utility.yul\":3018:3022   */\n      dup2\n        /* \"#utility.yul\":3009:3015   */\n      dup5\n        /* \"#utility.yul\":2945:3023   */\n      tag_85\n      jump\t// in\n    tag_152:\n        /* \"#utility.yul\":2937:3023   */\n      swap1\n      pop\n        /* \"#utility.yul\":2406:3030   */\n      swap5\n      swap4\n      pop\n      pop\n      pop\n      pop\n      jump\t// out\n        /* \"#utility.yul\":3036:3153   */\n    tag_89:\n        /* \"#utility.yul\":3145:3146   */\n      0x00\n        /* \"#utility.yul\":3142:3143   */\n      dup1\n        /* \"#utility.yul\":3135:3147   */\n      revert\n        /* \"#utility.yul\":3159:3276   */\n    tag_90:\n        /* \"#utility.yul\":3268:3269   */\n      0x00\n        /* \"#utility.yul\":3265:3266   */\n      dup1\n        /* \"#utility.yul\":3258:3270   */\n      revert\n        /* \"#utility.yul\":3282:3462   */\n    tag_91:\n        /* \"#utility.yul\":3330:3407   */\n      0x4e487b7100000000000000000000000000000000000000000000000000000000\n        /* \"#utility.yul\":3327:3328   */\n      0x00\n        /* \"#utility.yul\":3320:3408   */\n      mstore\n        /* \"#utility.yul\":3427:3431   */\n      0x41\n        /* \"#utility.yul\":3424:3425   */\n      0x04\n        /* \"#utility.yul\":3417:3432   */\n      mstore\n        /* \"#utility.yul\":3451:3455   */\n      0x24\n        /* \"#utility.yul\":3448:3449   */\n      0x00\n        /* \"#utility.yul\":3441:3456   */\n      revert\n        /* \"#utility.yul\":3468:3749   */\n    tag_92:\n        /* \"#utility.yul\":3551:3578   */\n      tag_157\n        /* \"#utility.yul\":3573:3577   */\n      dup3\n        /* \"#utility.yul\":3551:3578   */\n      tag_84\n      jump\t// in\n    tag_157:\n        /* \"#utility.yul\":3543:3549   */\n      dup2\n        /* \"#utility.yul\":3539:3579   */\n      add\n        /* \"#utility.yul\":3681:3687   */\n      dup2\n        /* \"#utility.yul\":3669:3679   */\n      dup2\n        /* \"#utility.yul\":3666:3688   */\n      lt\n        /* \"#utility.yul\":3645:3663   */\n      0xffffffffffffffff\n        /* \"#utility.yul\":3633:3643   */\n      dup3\n        /* \"#utility.yul\":3630:3664   */\n      gt\n        /* \"#utility.yul\":3627:3689   */\n      or\n        /* \"#utility.yul\":3624:3712   */\n      iszero\n      tag_158\n      jumpi\n        /* \"#utility.yul\":3692:3710   */\n      tag_159\n      tag_91\n      jump\t// in\n    tag_159:\n        /* \"#utility.yul\":3624:3712   */\n    tag_158:\n        /* \"#utility.yul\":3732:3742   */\n      dup1\n        /* \"#utility.yul\":3728:3730   */\n      0x40\n        /* \"#utility.yul\":3721:3743   */\n      mstore\n        /* \"#utility.yul\":3511:3749   */\n      pop\n        /* \"#utility.yul\":3468:3749   */\n      pop\n      pop\n      jump\t// out\n        /* \"#utility.yul\":3755:3884   */\n    tag_93:\n        /* \"#utility.yul\":3789:3795   */\n      0x00\n        /* \"#utility.yul\":3816:3836   */\n      tag_161\n      tag_75\n      jump\t// in\n    tag_161:\n        /* \"#utility.yul\":3806:3836   */\n      swap1\n      pop\n        /* \"#utility.yul\":3845:3878   */\n      tag_162\n        /* \"#utility.yul\":3873:3877   */\n      dup3\n        /* \"#utility.yul\":3865:3871   */\n      dup3\n        /* \"#utility.yul\":3845:3878   */\n      tag_92\n      jump\t// in\n    tag_162:\n        /* \"#utility.yul\":3755:3884   */\n      swap2\n      swap1\n      pop\n      jump\t// out\n        /* \"#utility.yul\":3890:4198   */\n    tag_94:\n        /* \"#utility.yul\":3952:3956   */\n      0x00\n        /* \"#utility.yul\":4042:4060   */\n      0xffffffffffffffff\n        /* \"#utility.yul\":4034:4040   */\n      dup3\n        /* \"#utility.yul\":4031:4061   */\n      gt\n        /* \"#utility.yul\":4028:4084   */\n      iszero\n      tag_164\n      jumpi\n        /* \"#utility.yul\":4064:4082   */\n      tag_165\n      tag_91\n      jump\t// in\n    tag_165:\n        /* \"#utility.yul\":4028:4084   */\n    tag_164:\n        /* \"#utility.yul\":4102:4131   */\n      tag_166\n        /* \"#utility.yul\":4124:4130   */\n      dup3\n        /* \"#utility.yul\":4102:4131   */\n      tag_84\n      jump\t// in\n    tag_166:\n        /* \"#utility.yul\":4094:4131   */\n      swap1\n      pop\n        /* \"#utility.yul\":4186:4190   */\n      0x20\n        /* \"#utility.yul\":4180:4184   */\n      dup2\n        /* \"#utility.yul\":4176:4191   */\n      add\n        /* \"#utility.yul\":4168:4191   */\n      swap1\n      pop\n        /* \"#utility.yul\":3890:4198   */\n      swap2\n      swap1\n      pop\n      jump\t// out\n        /* \"#utility.yul\":4204:4350   */\n    tag_95:\n        /* \"#utility.yul\":4301:4307   */\n      dup3\n        /* \"#utility.yul\":4296:4299   */\n      dup2\n        /* \"#utility.yul\":4291:4294   */\n      dup4\n        /* \"#utility.yul\":4278:4308   */\n      calldatacopy\n        /* \"#utility.yul\":4342:4343   */\n      0x00\n        /* \"#utility.yul\":4333:4339   */\n      dup4\n        /* \"#utility.yul\":4328:4331   */\n      dup4\n        /* \"#utility.yul\":4324:4340   */\n      add\n        /* \"#utility.yul\":4317:4344   */\n      mstore\n        /* \"#utility.yul\":4204:4350   */\n      pop\n      pop\n      pop\n      jump\t// out\n        /* \"#utility.yul\":4356:4781   */\n    tag_96:\n        /* \"#utility.yul\":4434:4439   */\n      0x00\n        /* \"#utility.yul\":4459:4525   */\n      tag_169\n        /* \"#utility.yul\":4475:4524   */\n      tag_170\n        /* \"#utility.yul\":4517:4523   */\n      dup5\n        /* \"#utility.yul\":4475:4524   */\n      tag_94\n      jump\t// in\n    tag_170:\n        /* \"#utility.yul\":4459:4525   */\n      tag_93\n      jump\t// in\n    tag_169:\n        /* \"#utility.yul\":4450:4525   */\n      swap1\n      pop\n        /* \"#utility.yul\":4548:4554   */\n      dup3\n        /* \"#utility.yul\":4541:4546   */\n      dup2\n        /* \"#utility.yul\":4534:4555   */\n      mstore\n        /* \"#utility.yul\":4586:4590   */\n      0x20\n        /* \"#utility.yul\":4579:4584   */\n      dup2\n        /* \"#utility.yul\":4575:4591   */\n      add\n        /* \"#utility.yul\":4624:4627   */\n      dup5\n        /* \"#utility.yul\":4615:4621   */\n      dup5\n        /* \"#utility.yul\":4610:4613   */\n      dup5\n        /* \"#utility.yul\":4606:4622   */\n      add\n        /* \"#utility.yul\":4603:4628   */\n      gt\n        /* \"#utility.yul\":4600:4712   */\n      iszero\n      tag_171\n      jumpi\n        /* \"#utility.yul\":4631:4710   */\n      tag_172\n      tag_90\n      jump\t// in\n    tag_172:\n        /* \"#utility.yul\":4600:4712   */\n    tag_171:\n        /* \"#utility.yul\":4721:4775   */\n      tag_173\n        /* \"#utility.yul\":4768:4774   */\n      dup5\n        /* \"#utility.yul\":4763:4766   */\n      dup3\n        /* \"#utility.yul\":4758:4761   */\n      dup6\n        /* \"#utility.yul\":4721:4775   */\n      tag_95\n      jump\t// in\n    tag_173:\n        /* \"#utility.yul\":4440:4781   */\n      pop\n        /* \"#utility.yul\":4356:4781   */\n      swap4\n      swap3\n      pop\n      pop\n      pop\n      jump\t// out\n        /* \"#utility.yul\":4801:5141   */\n    tag_97:\n        /* \"#utility.yul\":4857:4862   */\n      0x00\n        /* \"#utility.yul\":4906:4909   */\n      dup3\n        /* \"#utility.yul\":4899:4903   */\n      0x1f\n        /* \"#utility.yul\":4891:4897   */\n      dup4\n        /* \"#utility.yul\":4887:4904   */\n      add\n        /* \"#utility.yul\":4883:4910   */\n      slt\n        /* \"#utility.yul\":4873:4995   */\n      tag_175\n      jumpi\n        /* \"#utility.yul\":4914:4993   */\n      tag_176\n      tag_89\n      jump\t// in\n    tag_176:\n        /* \"#utility.yul\":4873:4995   */\n    tag_175:\n        /* \"#utility.yul\":5031:5037   */\n      dup2\n        /* \"#utility.yul\":5018:5038   */\n      calldataload\n        /* \"#utility.yul\":5056:5135   */\n      tag_177\n        /* \"#utility.yul\":5131:5134   */\n      dup5\n        /* \"#utility.yul\":5123:5129   */\n      dup3\n        /* \"#utility.yul\":5116:5120   */\n      0x20\n        /* \"#utility.yul\":5108:5114   */\n      dup7\n        /* \"#utility.yul\":5104:5121   */\n      add\n        /* \"#utility.yul\":5056:5135   */\n      tag_96\n      jump\t// in\n    tag_177:\n        /* \"#utility.yul\":5047:5135   */\n      swap2\n      pop\n        /* \"#utility.yul\":4863:5141   */\n      pop\n        /* \"#utility.yul\":4801:5141   */\n      swap3\n      swap2\n      pop\n      pop\n      jump\t// out\n        /* \"#utility.yul\":5147:5269   */\n    tag_98:\n        /* \"#utility.yul\":5220:5244   */\n      tag_179\n        /* \"#utility.yul\":5238:5243   */\n      dup2\n        /* \"#utility.yul\":5220:5244   */\n      tag_87\n      jump\t// in\n    tag_179:\n        /* \"#utility.yul\":5213:5218   */\n      dup2\n        /* \"#utility.yul\":5210:5245   */\n      eq\n        /* \"#utility.yul\":5200:5263   */\n      tag_180\n      jumpi\n        /* \"#utility.yul\":5259:5260   */\n      0x00\n        /* \"#utility.yul\":5256:5257   */\n      dup1\n        /* \"#utility.yul\":5249:5261   */\n      revert\n        /* \"#utility.yul\":5200:5263   */\n    tag_180:\n        /* \"#utility.yul\":5147:5269   */\n      pop\n      jump\t// out\n        /* \"#utility.yul\":5275:5414   */\n    tag_99:\n        /* \"#utility.yul\":5321:5326   */\n      0x00\n        /* \"#utility.yul\":5359:5365   */\n      dup2\n        /* \"#utility.yul\":5346:5366   */\n      calldataload\n        /* \"#utility.yul\":5337:5366   */\n      swap1\n      pop\n        /* \"#utility.yul\":5375:5408   */\n      tag_182\n        /* \"#utility.yul\":5402:5407   */\n      dup2\n        /* \"#utility.yul\":5375:5408   */\n      tag_98\n      jump\t// in\n    tag_182:\n        /* \"#utility.yul\":5275:5414   */\n      swap3\n      swap2\n      pop\n      pop\n      jump\t// out\n        /* \"#utility.yul\":5420:6399   */\n    tag_16:\n        /* \"#utility.yul\":5517:5523   */\n      0x00\n        /* \"#utility.yul\":5525:5531   */\n      dup1\n        /* \"#utility.yul\":5533:5539   */\n      0x00\n        /* \"#utility.yul\":5582:5584   */\n      0x60\n        /* \"#utility.yul\":5570:5579   */\n      dup5\n        /* \"#utility.yul\":5561:5568   */\n      dup7\n        /* \"#utility.yul\":5557:5580   */\n      sub\n        /* \"#utility.yul\":5553:5585   */\n      slt\n        /* \"#utility.yul\":5550:5669   */\n      iszero\n      tag_184\n      jumpi\n        /* \"#utility.yul\":5588:5667   */\n      tag_185\n      tag_76\n      jump\t// in\n    tag_185:\n        /* \"#utility.yul\":5550:5669   */\n    tag_184:\n        /* \"#utility.yul\":5736:5737   */\n      0x00\n        /* \"#utility.yul\":5725:5734   */\n      dup5\n        /* \"#utility.yul\":5721:5738   */\n      add\n        /* \"#utility.yul\":5708:5739   */\n      calldataload\n        /* \"#utility.yul\":5766:5784   */\n      0xffffffffffffffff\n        /* \"#utility.yul\":5758:5764   */\n      dup2\n        /* \"#utility.yul\":5755:5785   */\n      gt\n        /* \"#utility.yul\":5752:5869   */\n      iszero\n      tag_186\n      jumpi\n        /* \"#utility.yul\":5788:5867   */\n      tag_187\n      tag_77\n      jump\t// in\n    tag_187:\n        /* \"#utility.yul\":5752:5869   */\n    tag_186:\n        /* \"#utility.yul\":5893:5956   */\n      tag_188\n        /* \"#utility.yul\":5948:5955   */\n      dup7\n        /* \"#utility.yul\":5939:5945   */\n      dup3\n        /* \"#utility.yul\":5928:5937   */\n      dup8\n        /* \"#utility.yul\":5924:5946   */\n      add\n        /* \"#utility.yul\":5893:5956   */\n      tag_97\n      jump\t// in\n    tag_188:\n        /* \"#utility.yul\":5883:5956   */\n      swap4\n      pop\n        /* \"#utility.yul\":5679:5966   */\n      pop\n        /* \"#utility.yul\":6005:6007   */\n      0x20\n        /* \"#utility.yul\":6031:6084   */\n      tag_189\n        /* \"#utility.yul\":6076:6083   */\n      dup7\n        /* \"#utility.yul\":6067:6073   */\n      dup3\n        /* \"#utility.yul\":6056:6065   */\n      dup8\n        /* \"#utility.yul\":6052:6074   */\n      add\n        /* \"#utility.yul\":6031:6084   */\n      tag_99\n      jump\t// in\n    tag_189:\n        /* \"#utility.yul\":6021:6084   */\n      swap3\n      pop\n        /* \"#utility.yul\":5976:6094   */\n      pop\n        /* \"#utility.yul\":6161:6163   */\n      0x40\n        /* \"#utility.yul\":6150:6159   */\n      dup5\n        /* \"#utility.yul\":6146:6164   */\n      add\n        /* \"#utility.yul\":6133:6165   */\n      calldataload\n        /* \"#utility.yul\":6192:6210   */\n      0xffffffffffffffff\n        /* \"#utility.yul\":6184:6190   */\n      dup2\n        /* \"#utility.yul\":6181:6211   */\n      gt\n        /* \"#utility.yul\":6178:6295   */\n      iszero\n      tag_190\n      jumpi\n        /* \"#utility.yul\":6214:6293   */\n      tag_191\n      tag_77\n      jump\t// in\n    tag_191:\n        /* \"#utility.yul\":6178:6295   */\n    tag_190:\n        /* \"#utility.yul\":6319:6382   */\n      tag_192\n        /* \"#utility.yul\":6374:6381   */\n      dup7\n        /* \"#utility.yul\":6365:6371   */\n      dup3\n        /* \"#utility.yul\":6354:6363   */\n      dup8\n        /* \"#utility.yul\":6350:6372   */\n      add\n        /* \"#utility.yul\":6319:6382   */\n      tag_97\n      jump\t// in\n    tag_192:\n        /* \"#utility.yul\":6309:6382   */\n      swap2\n      pop\n        /* \"#utility.yul\":6104:6392   */\n      pop\n        /* \"#utility.yul\":5420:6399   */\n      swap3\n      pop\n      swap3\n      pop\n      swap3\n      jump\t// out\n        /* \"#utility.yul\":6405:7239   */\n    tag_20:\n        /* \"#utility.yul\":6493:6499   */\n      0x00\n        /* \"#utility.yul\":6501:6507   */\n      dup1\n        /* \"#utility.yul\":6550:6552   */\n      0x40\n        /* \"#utility.yul\":6538:6547   */\n      dup4\n        /* \"#utility.yul\":6529:6536   */\n      dup6\n        /* \"#utility.yul\":6525:6548   */\n      sub\n        /* \"#utility.yul\":6521:6553   */\n      slt\n        /* \"#utility.yul\":6518:6637   */\n      iszero\n      tag_194\n      jumpi\n        /* \"#utility.yul\":6556:6635   */\n      tag_195\n      tag_76\n      jump\t// in\n    tag_195:\n        /* \"#utility.yul\":6518:6637   */\n    tag_194:\n        /* \"#utility.yul\":6704:6705   */\n      0x00\n        /* \"#utility.yul\":6693:6702   */\n      dup4\n        /* \"#utility.yul\":6689:6706   */\n      add\n        /* \"#utility.yul\":6676:6707   */\n      calldataload\n        /* \"#utility.yul\":6734:6752   */\n      0xffffffffffffffff\n        /* \"#utility.yul\":6726:6732   */\n      dup2\n        /* \"#utility.yul\":6723:6753   */\n      gt\n        /* \"#utility.yul\":6720:6837   */\n      iszero\n      tag_196\n      jumpi\n        /* \"#utility.yul\":6756:6835   */\n      tag_197\n      tag_77\n      jump\t// in\n    tag_197:\n        /* \"#utility.yul\":6720:6837   */\n    tag_196:\n        /* \"#utility.yul\":6861:6924   */\n      tag_198\n        /* \"#utility.yul\":6916:6923   */\n      dup6\n        /* \"#utility.yul\":6907:6913   */\n      dup3\n        /* \"#utility.yul\":6896:6905   */\n      dup7\n        /* \"#utility.yul\":6892:6914   */\n      add\n        /* \"#utility.yul\":6861:6924   */\n      tag_97\n      jump\t// in\n    tag_198:\n        /* \"#utility.yul\":6851:6924   */\n      swap3\n      pop\n        /* \"#utility.yul\":6647:6934   */\n      pop\n        /* \"#utility.yul\":7001:7003   */\n      0x20\n        /* \"#utility.yul\":6990:6999   */\n      dup4\n        /* \"#utility.yul\":6986:7004   */\n      add\n        /* \"#utility.yul\":6973:7005   */\n      calldataload\n        /* \"#utility.yul\":7032:7050   */\n      0xffffffffffffffff\n        /* \"#utility.yul\":7024:7030   */\n      dup2\n        /* \"#utility.yul\":7021:7051   */\n      gt\n        /* \"#utility.yul\":7018:7135   */\n      iszero\n      tag_199\n      jumpi\n        /* \"#utility.yul\":7054:7133   */\n      tag_200\n      tag_77\n      jump\t// in\n    tag_200:\n        /* \"#utility.yul\":7018:7135   */\n    tag_199:\n        /* \"#utility.yul\":7159:7222   */\n      tag_201\n        /* \"#utility.yul\":7214:7221   */\n      dup6\n        /* \"#utility.yul\":7205:7211   */\n      dup3\n        /* \"#utility.yul\":7194:7203   */\n      dup7\n        /* \"#utility.yul\":7190:7212   */\n      add\n        /* \"#utility.yul\":7159:7222   */\n      tag_97\n      jump\t// in\n    tag_201:\n        /* \"#utility.yul\":7149:7222   */\n      swap2\n      pop\n        /* \"#utility.yul\":6944:7232   */\n      pop\n        /* \"#utility.yul\":6405:7239   */\n      swap3\n      pop\n      swap3\n      swap1\n      pop\n      jump\t// out\n        /* \"#utility.yul\":7245:7754   */\n    tag_24:\n        /* \"#utility.yul\":7314:7320   */\n      0x00\n        /* \"#utility.yul\":7363:7365   */\n      0x20\n        /* \"#utility.yul\":7351:7360   */\n      dup3\n        /* \"#utility.yul\":7342:7349   */\n      dup5\n        /* \"#utility.yul\":7338:7361   */\n      sub\n        /* \"#utility.yul\":7334:7366   */\n      slt\n        /* \"#utility.yul\":7331:7450   */\n      iszero\n      tag_203\n      jumpi\n        /* \"#utility.yul\":7369:7448   */\n      tag_204\n      tag_76\n      jump\t// in\n    tag_204:\n        /* \"#utility.yul\":7331:7450   */\n    tag_203:\n        /* \"#utility.yul\":7517:7518   */\n      0x00\n        /* \"#utility.yul\":7506:7515   */\n      dup3\n        /* \"#utility.yul\":7502:7519   */\n      add\n        /* \"#utility.yul\":7489:7520   */\n      calldataload\n        /* \"#utility.yul\":7547:7565   */\n      0xffffffffffffffff\n        /* \"#utility.yul\":7539:7545   */\n      dup2\n        /* \"#utility.yul\":7536:7566   */\n      gt\n        /* \"#utility.yul\":7533:7650   */\n      iszero\n      tag_205\n      jumpi\n        /* \"#utility.yul\":7569:7648   */\n      tag_206\n      tag_77\n      jump\t// in\n    tag_206:\n        /* \"#utility.yul\":7533:7650   */\n    tag_205:\n        /* \"#utility.yul\":7674:7737   */\n      tag_207\n        /* \"#utility.yul\":7729:7736   */\n      dup5\n        /* \"#utility.yul\":7720:7726   */\n      dup3\n        /* \"#utility.yul\":7709:7718   */\n      dup6\n        /* \"#utility.yul\":7705:7727   */\n      add\n        /* \"#utility.yul\":7674:7737   */\n      tag_97\n      jump\t// in\n    tag_207:\n        /* \"#utility.yul\":7664:7737   */\n      swap2\n      pop\n        /* \"#utility.yul\":7460:7747   */\n      pop\n        /* \"#utility.yul\":7245:7754   */\n      swap3\n      swap2\n      pop\n      pop\n      jump\t// out\n        /* \"#utility.yul\":7760:8073   */\n    tag_27:\n        /* \"#utility.yul\":7873:7877   */\n      0x00\n        /* \"#utility.yul\":7911:7913   */\n      0x20\n        /* \"#utility.yul\":7900:7909   */\n      dup3\n        /* \"#utility.yul\":7896:7914   */\n      add\n        /* \"#utility.yul\":7888:7914   */\n      swap1\n      pop\n        /* \"#utility.yul\":7960:7969   */\n      dup2\n        /* \"#utility.yul\":7954:7958   */\n      dup2\n        /* \"#utility.yul\":7950:7970   */\n      sub\n        /* \"#utility.yul\":7946:7947   */\n      0x00\n        /* \"#utility.yul\":7935:7944   */\n      dup4\n        /* \"#utility.yul\":7931:7948   */\n      add\n        /* \"#utility.yul\":7924:7971   */\n      mstore\n        /* \"#utility.yul\":7988:8066   */\n      tag_209\n        /* \"#utility.yul\":8061:8065   */\n      dup2\n        /* \"#utility.yul\":8052:8058   */\n      dup5\n        /* \"#utility.yul\":7988:8066   */\n      tag_85\n      jump\t// in\n    tag_209:\n        /* \"#utility.yul\":7980:8066   */\n      swap1\n      pop\n        /* \"#utility.yul\":7760:8073   */\n      swap3\n      swap2\n      pop\n      pop\n      jump\t// out\n        /* \"#utility.yul\":8079:8593   */\n    tag_32:\n        /* \"#utility.yul\":8240:8244   */\n      0x00\n        /* \"#utility.yul\":8278:8280   */\n      0x40\n        /* \"#utility.yul\":8267:8276   */\n      dup3\n        /* \"#utility.yul\":8263:8281   */\n      add\n        /* \"#utility.yul\":8255:8281   */\n      swap1\n      pop\n        /* \"#utility.yul\":8327:8336   */\n      dup2\n        /* \"#utility.yul\":8321:8325   */\n      dup2\n        /* \"#utility.yul\":8317:8337   */\n      sub\n        /* \"#utility.yul\":8313:8314   */\n      0x00\n        /* \"#utility.yul\":8302:8311   */\n      dup4\n        /* \"#utility.yul\":8298:8315   */\n      add\n        /* \"#utility.yul\":8291:8338   */\n      mstore\n        /* \"#utility.yul\":8355:8433   */\n      tag_211\n        /* \"#utility.yul\":8428:8432   */\n      dup2\n        /* \"#utility.yul\":8419:8425   */\n      dup6\n        /* \"#utility.yul\":8355:8433   */\n      tag_85\n      jump\t// in\n    tag_211:\n        /* \"#utility.yul\":8347:8433   */\n      swap1\n      pop\n        /* \"#utility.yul\":8480:8489   */\n      dup2\n        /* \"#utility.yul\":8474:8478   */\n      dup2\n        /* \"#utility.yul\":8470:8490   */\n      sub\n        /* \"#utility.yul\":8465:8467   */\n      0x20\n        /* \"#utility.yul\":8454:8463   */\n      dup4\n        /* \"#utility.yul\":8450:8468   */\n      add\n        /* \"#utility.yul\":8443:8491   */\n      mstore\n        /* \"#utility.yul\":8508:8586   */\n      tag_212\n        /* \"#utility.yul\":8581:8585   */\n      dup2\n        /* \"#utility.yul\":8572:8578   */\n      dup5\n        /* \"#utility.yul\":8508:8586   */\n      tag_85\n      jump\t// in\n    tag_212:\n        /* \"#utility.yul\":8500:8586   */\n      swap1\n      pop\n        /* \"#utility.yul\":8079:8593   */\n      swap4\n      swap3\n      pop\n      pop\n      pop\n      jump\t// out\n        /* \"#utility.yul\":8599:8779   */\n    tag_100:\n        /* \"#utility.yul\":8647:8724   */\n      0x4e487b7100000000000000000000000000000000000000000000000000000000\n        /* \"#utility.yul\":8644:8645   */\n      0x00\n        /* \"#utility.yul\":8637:8725   */\n      mstore\n        /* \"#utility.yul\":8744:8748   */\n      0x22\n        /* \"#utility.yul\":8741:8742   */\n      0x04\n        /* \"#utility.yul\":8734:8749   */\n      mstore\n        /* \"#utility.yul\":8768:8772   */\n      0x24\n        /* \"#utility.yul\":8765:8766   */\n      0x00\n        /* \"#utility.yul\":8758:8773   */\n      revert\n        /* \"#utility.yul\":8785:9105   */\n    tag_36:\n        /* \"#utility.yul\":8829:8835   */\n      0x00\n        /* \"#utility.yul\":8866:8867   */\n      0x02\n        /* \"#utility.yul\":8860:8864   */\n      dup3\n        /* \"#utility.yul\":8856:8868   */\n      div\n        /* \"#utility.yul\":8846:8868   */\n      swap1\n      pop\n        /* \"#utility.yul\":8913:8914   */\n      0x01\n        /* \"#utility.yul\":8907:8911   */\n      dup3\n        /* \"#utility.yul\":8903:8915   */\n      and\n        /* \"#utility.yul\":8934:8952   */\n      dup1\n        /* \"#utility.yul\":8924:9005   */\n      tag_215\n      jumpi\n        /* \"#utility.yul\":8990:8994   */\n      0x7f\n        /* \"#utility.yul\":8982:8988   */\n      dup3\n        /* \"#utility.yul\":8978:8995   */\n      and\n        /* \"#utility.yul\":8968:8995   */\n      swap2\n      pop\n        /* \"#utility.yul\":8924:9005   */\n    tag_215:\n        /* \"#utility.yul\":9052:9054   */\n      0x20\n        /* \"#utility.yul\":9044:9050   */\n      dup3\n        /* \"#utility.yul\":9041:9055   */\n      lt\n        /* \"#utility.yul\":9021:9039   */\n      dup2\n        /* \"#utility.yul\":9018:9056   */\n      sub\n        /* \"#utility.yul\":9015:9099   */\n      tag_216\n      jumpi\n        /* \"#utility.yul\":9071:9089   */\n      tag_217\n      tag_100\n      jump\t// in\n    tag_217:\n        /* \"#utility.yul\":9015:9099   */\n    tag_216:\n        /* \"#utility.yul\":8836:9105   */\n      pop\n        /* \"#utility.yul\":8785:9105   */\n      swap2\n      swap1\n      pop\n      jump\t// out\n        /* \"#utility.yul\":9111:9252   */\n    tag_101:\n        /* \"#utility.yul\":9160:9164   */\n      0x00\n        /* \"#utility.yul\":9183:9186   */\n      dup2\n        /* \"#utility.yul\":9175:9186   */\n      swap1\n      pop\n        /* \"#utility.yul\":9206:9209   */\n      dup2\n        /* \"#utility.yul\":9203:9204   */\n      0x00\n        /* \"#utility.yul\":9196:9210   */\n      mstore\n        /* \"#utility.yul\":9240:9244   */\n      0x20\n        /* \"#utility.yul\":9237:9238   */\n      0x00\n        /* \"#utility.yul\":9227:9245   */\n      keccak256\n        /* \"#utility.yul\":9219:9245   */\n      swap1\n      pop\n        /* \"#utility.yul\":9111:9252   */\n      swap2\n      swap1\n      pop\n      jump\t// out\n        /* \"#utility.yul\":9258:9351   */\n    tag_102:\n        /* \"#utility.yul\":9295:9301   */\n      0x00\n        /* \"#utility.yul\":9342:9344   */\n      0x20\n        /* \"#utility.yul\":9337:9339   */\n      0x1f\n        /* \"#utility.yul\":9330:9335   */\n      dup4\n        /* \"#utility.yul\":9326:9340   */\n      add\n        /* \"#utility.yul\":9322:9345   */\n      div\n        /* \"#utility.yul\":9312:9345   */\n      swap1\n      pop\n        /* \"#utility.yul\":9258:9351   */\n      swap2\n      swap1\n      pop\n      jump\t// out\n        /* \"#utility.yul\":9357:9464   */\n    tag_103:\n        /* \"#utility.yul\":9401:9409   */\n      0x00\n        /* \"#utility.yul\":9451:9456   */\n      dup3\n        /* \"#utility.yul\":9445:9449   */\n      dup3\n        /* \"#utility.yul\":9441:9457   */\n      shl\n        /* \"#utility.yul\":9420:9457   */\n      swap1\n      pop\n        /* \"#utility.yul\":9357:9464   */\n      swap3\n      swap2\n      pop\n      pop\n      jump\t// out\n        /* \"#utility.yul\":9470:9863   */\n    tag_104:\n        /* \"#utility.yul\":9539:9545   */\n      0x00\n        /* \"#utility.yul\":9589:9590   */\n      0x08\n        /* \"#utility.yul\":9577:9587   */\n      dup4\n        /* \"#utility.yul\":9573:9591   */\n      mul\n        /* \"#utility.yul\":9612:9709   */\n      tag_222\n        /* \"#utility.yul\":9642:9708   */\n      0xffffffffffffffffffffffffffffffffffffffffffffffffffffffffffffffff\n        /* \"#utility.yul\":9631:9640   */\n      dup3\n        /* \"#utility.yul\":9612:9709   */\n      tag_103\n      jump\t// in\n    tag_222:\n        /* \"#utility.yul\":9730:9769   */\n      tag_223\n        /* \"#utility.yul\":9760:9768   */\n      dup7\n        /* \"#utility.yul\":9749:9758   */\n      dup4\n        /* \"#utility.yul\":9730:9769   */\n      tag_103\n      jump\t// in\n    tag_223:\n        /* \"#utility.yul\":9718:9769   */\n      swap6\n      pop\n        /* \"#utility.yul\":9802:9806   */\n      dup1\n        /* \"#utility.yul\":9798:9807   */\n      not\n        /* \"#utility.yul\":9791:9796   */\n      dup5\n        /* \"#utility.yul\":9787:9808   */\n      and\n        /* \"#utility.yul\":9778:9808   */\n      swap4\n      pop\n        /* \"#utility.yul\":9851:9855   */\n      dup1\n        /* \"#utility.yul\":9841:9849   */\n      dup7\n        /* \"#utility.yul\":9837:9856   */\n      and\n        /* \"#utility.yul\":9830:9835   */\n      dup5\n        /* \"#utility.yul\":9827:9857   */\n      or\n        /* \"#utility.yul\":9817:9857   */\n      swap3\n      pop\n        /* \"#utility.yul\":9546:9863   */\n      pop\n      pop\n        /* \"#utility.yul\":9470:9863   */\n      swap4\n      swap3\n      pop\n      pop\n      pop\n      jump\t// out\n        /* \"#utility.yul\":9869:9929   */\n    tag_105:\n        /* \"#utility.yul\":9897:9900   */\n      0x00\n        /* \"#utility.yul\":9918:9923   */\n      dup2\n        /* \"#utility.yul\":9911:9923   */\n      swap1\n      pop\n        /* \"#utility.yul\":9869:9929   */\n      swap2\n      swap1\n      pop\n      jump\t// out\n        /* \"#utility.yul\":9935:10077   */\n    tag_106:\n        /* \"#utility.yul\":9985:9994   */\n      0x00\n        /* \"#utility.yul\":10018:10071   */\n      tag_226\n        /* \"#utility.yul\":10036:10070   */\n      tag_227\n        /* \"#utility.yul\":10045:10069   */\n      tag_228\n        /* \"#utility.yul\":10063:10068   */\n      dup5\n        /* \"#utility.yul\":10045:10069   */\n      tag_78\n      jump\t// in\n    tag_228:\n        /* \"#utility.yul\":10036:10070   */\n      tag_105\n      jump\t// in\n    tag_227:\n        /* \"#utility.yul\":10018:10071   */\n      tag_78\n      jump\t// in\n    tag_226:\n        /* \"#utility.yul\":10005:10071   */\n      swap1\n      pop\n        /* \"#utility.yul\":9935:10077   */\n      swap2\n      swap1\n      pop\n      jump\t// out\n        /* \"#utility.yul\":10083:10158   */\n    tag_107:\n        /* \"#utility.yul\":10126:10129   */\n      0x00\n        /* \"#utility.yul\":10147:10152   */\n      dup2\n        /* \"#utility.yul\":10140:10152   */\n      swap1\n      pop\n        /* \"#utility.yul\":10083:10158   */\n      swap2\n      swap1\n      pop\n      jump\t// out\n        /* \"#utility.yul\":10164:10433   */\n    tag_108:\n        /* \"#utility.yul\":10274:10313   */\n      tag_231\n        /* \"#utility.yul\":10305:10312   */\n      dup4\n        /* \"#utility.yul\":10274:10313   */\n      tag_106\n      jump\t// in\n    tag_231:\n        /* \"#utility.yul\":10335:10426   */\n      tag_232\n        /* \"#utility.yul\":10384:10425   */\n      tag_233\n        /* \"#utility.yul\":10408:10424   */\n      dup3\n        /* \"#utility.yul\":10384:10425   */\n      tag_107\n      jump\t// in\n    tag_233:\n        /* \"#utility.yul\":10376:10382   */\n      dup5\n        /* \"#utility.yul\":10369:10373   */\n      dup5\n        /* \"#utility.yul\":10363:10374   */\n      sload\n        /* \"#utility.yul\":10335:10426   */\n      tag_104\n      jump\t// in\n    tag_232:\n        /* \"#utility.yul\":10329:10333   */\n      dup3\n        /* \"#utility.yul\":10322:10427   */\n      sstore\n        /* \"#utility.yul\":10240:10433   */\n      pop\n        /* \"#utility.yul\":10164:10433   */\n      pop\n      pop\n      pop\n      jump\t// out\n        /* \"#utility.yul\":10439:10512   */\n    tag_109:\n        /* \"#utility.yul\":10484:10487   */\n      0x00\n        /* \"#utility.yul\":10439:10512   */\n      swap1\n      jump\t// out\n        /* \"#utility.yul\":10518:10707   */\n    tag_110:\n        /* \"#utility.yul\":10595:10627   */\n      tag_236\n      tag_109\n      jump\t// in\n    tag_236:\n        /* \"#utility.yul\":10636:10701   */\n      tag_237\n        /* \"#utility.yul\":10694:10700   */\n      dup2\n        /* \"#utility.yul\":10686:10692   */\n      dup5\n        /* \"#utility.yul\":10680:10684   */\n      dup5\n        /* \"#utility.yul\":10636:10701   */\n      tag_108\n      jump\t// in\n    tag_237:\n        /* \"#utility.yul\":10571:10707   */\n      pop\n        /* \"#utility.yul\":10518:10707   */\n      pop\n      pop\n      jump\t// out\n        /* \"#utility.yul\":10713:10899   */\n    tag_111:\n        /* \"#utility.yul\":10773:10893   */\n    tag_239:\n        /* \"#utility.yul\":10790:10793   */\n      dup2\n        /* \"#utility.yul\":10783:10788   */\n      dup2\n        /* \"#utility.yul\":10780:10794   */\n      lt\n        /* \"#utility.yul\":10773:10893   */\n      iszero\n      tag_241\n      jumpi\n        /* \"#utility.yul\":10844:10883   */\n      tag_242\n        /* \"#utility.yul\":10881:10882   */\n      0x00\n        /* \"#utility.yul\":10874:10879   */\n      dup3\n        /* \"#utility.yul\":10844:10883   */\n      tag_110\n      jump\t// in\n    tag_242:\n        /* \"#utility.yul\":10817:10818   */\n      0x01\n        /* \"#utility.yul\":10810:10815   */\n      dup2\n        /* \"#utility.yul\":10806:10819   */\n      add\n        /* \"#utility.yul\":10797:10819   */\n      swap1\n      pop\n        /* \"#utility.yul\":10773:10893   */\n      jump(tag_239)\n    tag_241:\n        /* \"#utility.yul\":10713:10899   */\n      pop\n      pop\n      jump\t// out\n        /* \"#utility.yul\":10905:11448   */\n    tag_112:\n        /* \"#utility.yul\":11006:11008   */\n      0x1f\n        /* \"#utility.yul\":11001:11004   */\n      dup3\n        /* \"#utility.yul\":10998:11009   */\n      gt\n        /* \"#utility.yul\":10995:11441   */\n      iszero\n      tag_244\n      jumpi\n        /* \"#utility.yul\":11040:11078   */\n      tag_245\n        /* \"#utility.yul\":11072:11077   */\n      dup2\n        /* \"#utility.yul\":11040:11078   */\n      tag_101\n      jump\t// in\n    tag_245:\n        /* \"#utility.yul\":11124:11153   */\n      tag_246\n        /* \"#utility.yul\":11142:11152   */\n      dup5\n        /* \"#utility.yul\":11124:11153   */\n      tag_102\n      jump\t// in\n    tag_246:\n        /* \"#utility.yul\":11114:11122   */\n      dup2\n        /* \"#utility.yul\":11110:11154   */\n      add\n        /* \"#utility.yul\":11307:11309   */\n      0x20\n        /* \"#utility.yul\":11295:11305   */\n      dup6\n        /* \"#utility.yul\":11292:11310   */\n      lt\n        /* \"#utility.yul\":11289:11338   */\n      iszero\n      tag_247\n      jumpi\n        /* \"#utility.yul\":11328:11336   */\n      dup2\n        /* \"#utility.yul\":11313:11336   */\n      swap1\n      pop\n        /* \"#utility.yul\":11289:11338   */\n    tag_247:\n        /* \"#utility.yul\":11351:11431   */\n      tag_248\n        /* \"#utility.yul\":11407:11429   */\n      tag_249\n        /* \"#utility.yul\":11425:11428   */\n      dup6\n        /* \"#utility.yul\":11407:11429   */\n      tag_102\n      jump\t// in\n    tag_249:\n        /* \"#utility.yul\":11397:11405   */\n      dup4\n        /* \"#utility.yul\":11393:11430   */\n      add\n        /* \"#utility.yul\":11380:11391   */\n      dup3\n        /* \"#utility.yul\":11351:11431   */\n      tag_111\n      jump\t// in\n    tag_248:\n        /* \"#utility.yul\":11010:11441   */\n      pop\n      pop\n        /* \"#utility.yul\":10995:11441   */\n    tag_244:\n        /* \"#utility.yul\":10905:11448   */\n      pop\n      pop\n      pop\n      jump\t// out\n        /* \"#utility.yul\":11454:11571   */\n    tag_113:\n        /* \"#utility.yul\":11508:11516   */\n      0x00\n        /* \"#utility.yul\":11558:11563   */\n      dup3\n        /* \"#utility.yul\":11552:11556   */\n      dup3\n        /* \"#utility.yul\":11548:11564   */\n      shr\n        /* \"#utility.yul\":11527:11564   */\n      swap1\n      pop\n        /* \"#utility.yul\":11454:11571   */\n      swap3\n      swap2\n      pop\n      pop\n      jump\t// out\n        /* \"#utility.yul\":11577:11746   */\n    tag_114:\n        /* \"#utility.yul\":11621:11627   */\n      0x00\n        /* \"#utility.yul\":11654:11705   */\n      tag_252\n        /* \"#utility.yul\":11702:11703   */\n      0x00\n        /* \"#utility.yul\":11698:11704   */\n      not\n        /* \"#utility.yul\":11690:11695   */\n      dup5\n        /* \"#utility.yul\":11687:11688   */\n      0x08\n        /* \"#utility.yul\":11683:11696   */\n      mul\n        /* \"#utility.yul\":11654:11705   */\n      tag_113\n      jump\t// in\n    tag_252:\n        /* \"#utility.yul\":11650:11706   */\n      not\n        /* \"#utility.yul\":11735:11739   */\n      dup1\n        /* \"#utility.yul\":11729:11733   */\n      dup4\n        /* \"#utility.yul\":11725:11740   */\n      and\n        /* \"#utility.yul\":11715:11740   */\n      swap2\n      pop\n        /* \"#utility.yul\":11628:11746   */\n      pop\n        /* \"#utility.yul\":11577:11746   */\n      swap3\n      swap2\n      pop\n      pop\n      jump\t// out\n        /* \"#utility.yul\":11751:12046   */\n    tag_115:\n        /* \"#utility.yul\":11827:11831   */\n      0x00\n        /* \"#utility.yul\":11973:12002   */\n      tag_254\n        /* \"#utility.yul\":11998:12001   */\n      dup4\n        /* \"#utility.yul\":11992:11996   */\n      dup4\n        /* \"#utility.yul\":11973:12002   */\n      tag_114\n      jump\t// in\n    tag_254:\n        /* \"#utility.yul\":11965:12002   */\n      swap2\n      pop\n        /* \"#utility.yul\":12035:12038   */\n      dup3\n        /* \"#utility.yul\":12032:12033   */\n      0x02\n        /* \"#utility.yul\":12028:12039   */\n      mul\n        /* \"#utility.yul\":12022:12026   */\n      dup3\n        /* \"#utility.yul\":12019:12040   */\n      or\n        /* \"#utility.yul\":12011:12040   */\n      swap1\n      pop\n        /* \"#utility.yul\":11751:12046   */\n      swap3\n      swap2\n      pop\n      pop\n      jump\t// out\n        /* \"#utility.yul\":12051:13446   */\n    tag_49:\n        /* \"#utility.yul\":12168:12205   */\n      tag_256\n        /* \"#utility.yul\":12201:12204   */\n      dup3\n        /* \"#utility.yul\":12168:12205   */\n      tag_81\n      jump\t// in\n    tag_256:\n        /* \"#utility.yul\":12270:12288   */\n      0xffffffffffffffff\n        /* \"#utility.yul\":12262:12268   */\n      dup2\n        /* \"#utility.yul\":12259:12289   */\n      gt\n        /* \"#utility.yul\":12256:12312   */\n      iszero\n      tag_257\n      jumpi\n        /* \"#utility.yul\":12292:12310   */\n      tag_258\n      tag_91\n      jump\t// in\n    tag_258:\n        /* \"#utility.yul\":12256:12312   */\n    tag_257:\n        /* \"#utility.yul\":12336:12374   */\n      tag_259\n        /* \"#utility.yul\":12368:12372   */\n      dup3\n        /* \"#utility.yul\":12362:12373   */\n      sload\n        /* \"#utility.yul\":12336:12374   */\n      tag_36\n      jump\t// in\n    tag_259:\n        /* \"#utility.yul\":12421:12488   */\n      tag_260\n        /* \"#utility.yul\":12481:12487   */\n      dup3\n        /* \"#utility.yul\":12473:12479   */\n      dup3\n        /* \"#utility.yul\":12467:12471   */\n      dup6\n        /* \"#utility.yul\":12421:12488   */\n      tag_112\n      jump\t// in\n    tag_260:\n        /* \"#utility.yul\":12515:12516   */\n      0x00\n        /* \"#utility.yul\":12539:12543   */\n      0x20\n        /* \"#utility.yul\":12526:12543   */\n      swap1\n      pop\n        /* \"#utility.yul\":12571:12573   */\n      0x1f\n        /* \"#utility.yul\":12563:12569   */\n      dup4\n        /* \"#utility.yul\":12560:12574   */\n      gt\n        /* \"#utility.yul\":12588:12589   */\n      0x01\n        /* \"#utility.yul\":12583:13201   */\n      dup2\n      eq\n      tag_262\n      jumpi\n        /* \"#utility.yul\":13245:13246   */\n      0x00\n        /* \"#utility.yul\":13262:13268   */\n      dup5\n        /* \"#utility.yul\":13259:13336   */\n      iszero\n      tag_263\n      jumpi\n        /* \"#utility.yul\":13311:13320   */\n      dup3\n        /* \"#utility.yul\":13306:13309   */\n      dup8\n        /* \"#utility.yul\":13302:13321   */\n      add\n        /* \"#utility.yul\":13296:13322   */\n      mload\n        /* \"#utility.yul\":13287:13322   */\n      swap1\n      pop\n        /* \"#utility.yul\":13259:13336   */\n    tag_263:\n        /* \"#utility.yul\":13362:13429   */\n      tag_264\n        /* \"#utility.yul\":13422:13428   */\n      dup6\n        /* \"#utility.yul\":13415:13420   */\n      dup3\n        /* \"#utility.yul\":13362:13429   */\n      tag_115\n      jump\t// in\n    tag_264:\n        /* \"#utility.yul\":13356:13360   */\n      dup7\n        /* \"#utility.yul\":13349:13430   */\n      sstore\n        /* \"#utility.yul\":13218:13440   */\n      pop\n        /* \"#utility.yul\":12553:13440   */\n      jump(tag_261)\n        /* \"#utility.yul\":12583:13201   */\n    tag_262:\n        /* \"#utility.yul\":12635:12639   */\n      0x1f\n        /* \"#utility.yul\":12631:12640   */\n      not\n        /* \"#utility.yul\":12623:12629   */\n      dup5\n        /* \"#utility.yul\":12619:12641   */\n      and\n        /* \"#utility.yul\":12669:12706   */\n      tag_265\n        /* \"#utility.yul\":12701:12705   */\n      dup7\n        /* \"#utility.yul\":12669:12706   */\n      tag_101\n      jump\t// in\n    tag_265:\n        /* \"#utility.yul\":12728:12729   */\n      0x00\n        /* \"#utility.yul\":12742:12950   */\n    tag_266:\n        /* \"#utility.yul\":12756:12763   */\n      dup3\n        /* \"#utility.yul\":12753:12754   */\n      dup2\n        /* \"#utility.yul\":12750:12764   */\n      lt\n        /* \"#utility.yul\":12742:12950   */\n      iszero\n      tag_268\n      jumpi\n        /* \"#utility.yul\":12835:12844   */\n      dup5\n        /* \"#utility.yul\":12830:12833   */\n      dup10\n        /* \"#utility.yul\":12826:12845   */\n      add\n        /* \"#utility.yul\":12820:12846   */\n      mload\n        /* \"#utility.yul\":12812:12818   */\n      dup3\n        /* \"#utility.yul\":12805:12847   */\n      sstore\n        /* \"#utility.yul\":12886:12887   */\n      0x01\n        /* \"#utility.yul\":12878:12884   */\n      dup3\n        /* \"#utility.yul\":12874:12888   */\n      add\n        /* \"#utility.yul\":12864:12888   */\n      swap2\n      pop\n        /* \"#utility.yul\":12933:12935   */\n      0x20\n        /* \"#utility.yul\":12922:12931   */\n      dup6\n        /* \"#utility.yul\":12918:12936   */\n      add\n        /* \"#utility.yul\":12905:12936   */\n      swap5\n      pop\n        /* \"#utility.yul\":12779:12783   */\n      0x20\n        /* \"#utility.yul\":12776:12777   */\n      dup2\n        /* \"#utility.yul\":12772:12784   */\n      add\n        /* \"#utility.yul\":12767:12784   */\n      swap1\n      pop\n        /* \"#utility.yul\":12742:12950   */\n      jump(tag_266)\n    tag_268:\n        /* \"#utility.yul\":12978:12984   */\n      dup7\n        /* \"#utility.yul\":12969:12976   */\n      dup4\n        /* \"#utility.yul\":12966:12985   */\n      lt\n        /* \"#utility.yul\":12963:13142   */\n      iszero\n      tag_269\n      jumpi\n        /* \"#utility.yul\":13036:13045   */\n      dup5\n        /* \"#utility.yul\":13031:13034   */\n      dup10\n        /* \"#utility.yul\":13027:13046   */\n      add\n        /* \"#utility.yul\":13021:13047   */\n      mload\n        /* \"#utility.yul\":13079:13127   */\n      tag_270\n        /* \"#utility.yul\":13121:13125   */\n      0x1f\n        /* \"#utility.yul\":13113:13119   */\n      dup10\n        /* \"#utility.yul\":13109:13126   */\n      and\n        /* \"#utility.yul\":13098:13107   */\n      dup3\n        /* \"#utility.yul\":13079:13127   */\n      tag_114\n      jump\t// in\n    tag_270:\n        /* \"#utility.yul\":13071:13077   */\n      dup4\n        /* \"#utility.yul\":13064:13128   */\n      sstore\n        /* \"#utility.yul\":12986:13142   */\n      pop\n        /* \"#utility.yul\":12963:13142   */\n    tag_269:\n        /* \"#utility.yul\":13188:13189   */\n      0x01\n        /* \"#utility.yul\":13184:13185   */\n      0x02\n        /* \"#utility.yul\":13176:13182   */\n      dup9\n        /* \"#utility.yul\":13172:13186   */\n      mul\n        /* \"#utility.yul\":13168:13190   */\n      add\n        /* \"#utility.yul\":13162:13166   */\n      dup9\n        /* \"#utility.yul\":13155:13191   */\n      sstore\n        /* \"#utility.yul\":12590:13201   */\n      pop\n      pop\n      pop\n        /* \"#utility.yul\":12553:13440   */\n    tag_261:\n      pop\n        /* \"#utility.yul\":12143:13446   */\n      pop\n      pop\n      pop\n        /* \"#utility.yul\":12051:13446   */\n      pop\n      pop\n      jump\t// out\n        /* \"#utility.yul\":13452:13600   */\n    tag_116:\n        /* \"#utility.yul\":13554:13565   */\n      0x00\n        /* \"#utility.yul\":13591:13594   */\n      dup2\n        /* \"#utility.yul\":13576:13594   */\n      swap1\n      pop\n        /* \"#utility.yul\":13452:13600   */\n      swap3\n      swap2\n      pop\n      pop\n      jump\t// out\n        /* \"#utility.yul\":13606:13996   */\n    tag_117:\n        /* \"#utility.yul\":13712:13715   */\n      0x00\n        /* \"#utility.yul\":13740:13779   */\n      tag_273\n        /* \"#utility.yul\":13773:13778   */\n      dup3\n        /* \"#utility.yul\":13740:13779   */\n      tag_81\n      jump\t// in\n    tag_273:\n        /* \"#utility.yul\":13795:13884   */\n      tag_274\n        /* \"#utility.yul\":13877:13883   */\n      dup2\n        /* \"#utility.yul\":13872:13875   */\n      dup6\n        /* \"#utility.yul\":13795:13884   */\n      tag_116\n      jump\t// in\n    tag_274:\n        /* \"#utility.yul\":13788:13884   */\n      swap4\n      pop\n        /* \"#utility.yul\":13893:13958   */\n      tag_275\n        /* \"#utility.yul\":13951:13957   */\n      dup2\n        /* \"#utility.yul\":13946:13949   */\n      dup6\n        /* \"#utility.yul\":13939:13943   */\n      0x20\n        /* \"#utility.yul\":13932:13937   */\n      dup7\n        /* \"#utility.yul\":13928:13944   */\n      add\n        /* \"#utility.yul\":13893:13958   */\n      tag_83\n      jump\t// in\n    tag_275:\n        /* \"#utility.yul\":13983:13989   */\n      dup1\n        /* \"#utility.yul\":13978:13981   */\n      dup5\n        /* \"#utility.yul\":13974:13990   */\n      add\n        /* \"#utility.yul\":13967:13990   */\n      swap2\n      pop\n        /* \"#utility.yul\":13716:13996   */\n      pop\n        /* \"#utility.yul\":13606:13996   */\n      swap3\n      swap2\n      pop\n      pop\n      jump\t// out\n        /* \"#utility.yul\":14002:14277   */\n    tag_56:\n        /* \"#utility.yul\":14134:14137   */\n      0x00\n        /* \"#utility.yul\":14156:14251   */\n      tag_277\n        /* \"#utility.yul\":14247:14250   */\n      dup3\n        /* \"#utility.yul\":14238:14244   */\n      dup5\n        /* \"#utility.yul\":14156:14251   */\n      tag_117\n      jump\t// in\n    tag_277:\n        /* \"#utility.yul\":14149:14251   */\n      swap2\n      pop\n        /* \"#utility.yul\":14268:14271   */\n      dup2\n        /* \"#utility.yul\":14261:14271   */\n      swap1\n      pop\n        /* \"#utility.yul\":14002:14277   */\n      swap3\n      swap2\n      pop\n      pop\n      jump\t// out\n\n    auxdata: 0xa2646970667358221220f4a2bb510ed20c4db55313b241b1fe1ec15123b9223925fd24264ad4a936244764736f6c63430008130033\n}\n",
				"bytecode": {
					"linkReferences": {},
					"object": "608060405234801561001057600080fd5b50610df9806100206000396000f3fe608060405234801561001057600080fd5b50600436106100575760003560e01c80631b258fc01461005c5780638f0974151461008e578063bf717b7a146100aa578063d186b1b0146100c6578063f1e64252146100f6575b600080fd5b61007660048036038101906100719190610649565b610127565b60405161008593929190610747565b60405180910390f35b6100a860048036038101906100a391906108ed565b610291565b005b6100c460048036038101906100bf9190610978565b610367565b005b6100e060048036038101906100db91906109f0565b610405565b6040516100ed9190610a39565b60405180910390f35b610110600480360381019061010b9190610649565b6104bb565b60405161011e929190610a5b565b60405180910390f35b6000818154811061013757600080fd5b906000526020600020906003020160009150905080600001805461015a90610ac1565b80601f016020809104026020016040519081016040528092919081815260200182805461018690610ac1565b80156101d35780601f106101a8576101008083540402835291602001916101d3565b820191906000526020600020905b8154815290600101906020018083116101b657829003601f168201915b5050505050908060010160009054906101000a900473ffffffffffffffffffffffffffffffffffffffff169080600201805461020e90610ac1565b80601f016020809104026020016040519081016040528092919081815260200182805461023a90610ac1565b80156102875780601f1061025c57610100808354040283529160200191610287565b820191906000526020600020905b81548152906001019060200180831161026a57829003601f168201915b5050505050905083565b600060405180606001604052808581526020018473ffffffffffffffffffffffffffffffffffffffff16815260200183815250908060018154018082558091505060019003906000526020600020906003020160009091909190915060008201518160000190816103029190610c9e565b5060208201518160010160006101000a81548173ffffffffffffffffffffffffffffffffffffffff021916908373ffffffffffffffffffffffffffffffffffffffff160217905550604082015181600201908161035f9190610c9e565b505050505050565b6001604051806040016040528084815260200183815250908060018154018082558091505060019003906000526020600020906002020160009091909190915060008201518160000190816103bc9190610c9e565b5060208201518160010190816103d29190610c9e565b505050806002836040516103e69190610dac565b908152602001604051809103902090816104009190610c9e565b505050565b600281805160208101820180518482526020830160208501208183528095505050505050600091509050805461043a90610ac1565b80601f016020809104026020016040519081016040528092919081815260200182805461046690610ac1565b80156104b35780601f10610488576101008083540402835291602001916104b3565b820191906000526020600020905b81548152906001019060200180831161049657829003601f168201915b505050505081565b600181815481106104cb57600080fd5b90600052602060002090600202016000915090508060000180546104ee90610ac1565b80601f016020809104026020016040519081016040528092919081815260200182805461051a90610ac1565b80156105675780601f1061053c57610100808354040283529160200191610567565b820191906000526020600020905b81548152906001019060200180831161054a57829003601f168201915b50505050509080600101805461057c90610ac1565b80601f01602080910402602001604051908101604052809291908181526020018280546105a890610ac1565b80156105f55780601f106105ca576101008083540402835291602001916105f5565b820191906000526020600020905b8154815290600101906020018083116105d857829003601f168201915b5050505050905082565b6000604051905090565b600080fd5b600080fd5b6000819050919050565b61062681610613565b811461063157600080fd5b50565b6000813590506106438161061d565b92915050565b60006020828403121561065f5761065e610609565b5b600061066d84828501610634565b91505092915050565b600081519050919050565b600082825260208201905092915050565b60005b838110156106b0578082015181840152602081019050610695565b60008484015250505050565b6000601f19601f8301169050919050565b60006106d882610676565b6106e28185610681565b93506106f2818560208601610692565b6106fb816106bc565b840191505092915050565b600073ffffffffffffffffffffffffffffffffffffffff82169050919050565b600061073182610706565b9050919050565b61074181610726565b82525050565b6000606082019050818103600083015261076181866106cd565b90506107706020830185610738565b818103604083015261078281846106cd565b9050949350505050565b600080fd5b600080fd5b7f4e487b7100000000000000000000000000000000000000000000000000000000600052604160045260246000fd5b6107ce826106bc565b810181811067ffffffffffffffff821117156107ed576107ec610796565b5b80604052505050565b60006108006105ff565b905061080c82826107c5565b919050565b600067ffffffffffffffff82111561082c5761082b610796565b5b610835826106bc565b9050602081019050919050565b82818337600083830152505050565b600061086461085f84610811565b6107f6565b9050828152602081018484840111156108805761087f610791565b5b61088b848285610842565b509392505050565b600082601f8301126108a8576108a761078c565b5b81356108b8848260208601610851565b91505092915050565b6108ca81610726565b81146108d557600080fd5b50565b6000813590506108e7816108c1565b92915050565b60008060006060848603121561090657610905610609565b5b600084013567ffffffffffffffff8111156109245761092361060e565b5b61093086828701610893565b9350506020610941868287016108d8565b925050604084013567ffffffffffffffff8111156109625761096161060e565b5b61096e86828701610893565b9150509250925092565b6000806040838503121561098f5761098e610609565b5b600083013567ffffffffffffffff8111156109ad576109ac61060e565b5b6109b985828601610893565b925050602083013567ffffffffffffffff8111156109da576109d961060e565b5b6109e685828601610893565b9150509250929050565b600060208284031215610a0657610a05610609565b5b600082013567ffffffffffffffff811115610a2457610a2361060e565b5b610a3084828501610893565b91505092915050565b60006020820190508181036000830152610a5381846106cd565b905092915050565b60006040820190508181036000830152610a7581856106cd565b90508181036020830152610a8981846106cd565b90509392505050565b7f4e487b7100000000000000000000000000000000000000000000000000000000600052602260045260246000fd5b60006002820490506001821680610ad957607f821691505b602082108103610aec57610aeb610a92565b5b50919050565b60008190508160005260206000209050919050565b60006020601f8301049050919050565b600082821b905092915050565b600060088302610b547fffffffffffffffffffffffffffffffffffffffffffffffffffffffffffffffff82610b17565b610b5e8683610b17565b95508019841693508086168417925050509392505050565b6000819050919050565b6000610b9b610b96610b9184610613565b610b76565b610613565b9050919050565b6000819050919050565b610bb583610b80565b610bc9610bc182610ba2565b848454610b24565b825550505050565b600090565b610bde610bd1565b610be9818484610bac565b505050565b5b81811015610c0d57610c02600082610bd6565b600181019050610bef565b5050565b601f821115610c5257610c2381610af2565b610c2c84610b07565b81016020851015610c3b578190505b610c4f610c4785610b07565b830182610bee565b50505b505050565b600082821c905092915050565b6000610c7560001984600802610c57565b1980831691505092915050565b6000610c8e8383610c64565b9150826002028217905092915050565b610ca782610676565b67ffffffffffffffff811115610cc057610cbf610796565b5b610cca8254610ac1565b610cd5828285610c11565b600060209050601f831160018114610d085760008415610cf6578287015190505b610d008582610c82565b865550610d68565b601f198416610d1686610af2565b60005b82811015610d3e57848901518255600182019150602085019450602081019050610d19565b86831015610d5b5784890151610d57601f891682610c64565b8355505b6001600288020188555050505b505050505050565b600081905092915050565b6000610d8682610676565b610d908185610d70565b9350610da0818560208601610692565b80840191505092915050565b6000610db88284610d7b565b91508190509291505056fea2646970667358221220f4a2bb510ed20c4db55313b241b1fe1ec15123b9223925fd24264ad4a936244764736f6c63430008130033",
					"opcodes": "PUSH1 0x80 PUSH1 0x40 MSTORE CALLVALUE DUP1 ISZERO PUSH2 0x10 JUMPI PUSH1 0x0 DUP1 REVERT JUMPDEST POP PUSH2 0xDF9 DUP1 PUSH2 0x20 PUSH1 0x0 CODECOPY PUSH1 0x0 RETURN INVALID PUSH1 0x80 PUSH1 0x40 MSTORE CALLVALUE DUP1 ISZERO PUSH2 0x10 JUMPI PUSH1 0x0 DUP1 REVERT JUMPDEST POP PUSH1 0x4 CALLDATASIZE LT PUSH2 0x57 JUMPI PUSH1 0x0 CALLDATALOAD PUSH1 0xE0 SHR DUP1 PUSH4 0x1B258FC0 EQ PUSH2 0x5C JUMPI DUP1 PUSH4 0x8F097415 EQ PUSH2 0x8E JUMPI DUP1 PUSH4 0xBF717B7A EQ PUSH2 0xAA JUMPI DUP1 PUSH4 0xD186B1B0 EQ PUSH2 0xC6 JUMPI DUP1 PUSH4 0xF1E64252 EQ PUSH2 0xF6 JUMPI JUMPDEST PUSH1 0x0 DUP1 REVERT JUMPDEST PUSH2 0x76 PUSH1 0x4 DUP1 CALLDATASIZE SUB DUP2 ADD SWAP1 PUSH2 0x71 SWAP2 SWAP1 PUSH2 0x649 JUMP JUMPDEST PUSH2 0x127 JUMP JUMPDEST PUSH1 0x40 MLOAD PUSH2 0x85 SWAP4 SWAP3 SWAP2 SWAP1 PUSH2 0x747 JUMP JUMPDEST PUSH1 0x40 MLOAD DUP1 SWAP2 SUB SWAP1 RETURN JUMPDEST PUSH2 0xA8 PUSH1 0x4 DUP1 CALLDATASIZE SUB DUP2 ADD SWAP1 PUSH2 0xA3 SWAP2 SWAP1 PUSH2 0x8ED JUMP JUMPDEST PUSH2 0x291 JUMP JUMPDEST STOP JUMPDEST PUSH2 0xC4 PUSH1 0x4 DUP1 CALLDATASIZE SUB DUP2 ADD SWAP1 PUSH2 0xBF SWAP2 SWAP1 PUSH2 0x978 JUMP JUMPDEST PUSH2 0x367 JUMP JUMPDEST STOP JUMPDEST PUSH2 0xE0 PUSH1 0x4 DUP1 CALLDATASIZE SUB DUP2 ADD SWAP1 PUSH2 0xDB SWAP2 SWAP1 PUSH2 0x9F0 JUMP JUMPDEST PUSH2 0x405 JUMP JUMPDEST PUSH1 0x40 MLOAD PUSH2 0xED SWAP2 SWAP1 PUSH2 0xA39 JUMP JUMPDEST PUSH1 0x40 MLOAD DUP1 SWAP2 SUB SWAP1 RETURN JUMPDEST PUSH2 0x110 PUSH1 0x4 DUP1 CALLDATASIZE SUB DUP2 ADD SWAP1 PUSH2 0x10B SWAP2 SWAP1 PUSH2 0x649 JUMP JUMPDEST PUSH2 0x4BB JUMP JUMPDEST PUSH1 0x40 MLOAD PUSH2 0x11E SWAP3 SWAP2 SWAP1 PUSH2 0xA5B JUMP JUMPDEST PUSH1 0x40 MLOAD DUP1 SWAP2 SUB SWAP1 RETURN JUMPDEST PUSH1 0x0 DUP2 DUP2 SLOAD DUP2 LT PUSH2 0x137 JUMPI PUSH1 0x0 DUP1 REVERT JUMPDEST SWAP1 PUSH1 0x0 MSTORE PUSH1 0x20 PUSH1 0x0 KECCAK256 SWAP1 PUSH1 0x3 MUL ADD PUSH1 0x0 SWAP2 POP SWAP1 POP DUP1 PUSH1 0x0 ADD DUP1 SLOAD PUSH2 0x15A SWAP1 PUSH2 0xAC1 JUMP JUMPDEST DUP1 PUSH1 0x1F ADD PUSH1 0x20 DUP1 SWAP2 DIV MUL PUSH1 0x20 ADD PUSH1 0x40 MLOAD SWAP1 DUP2 ADD PUSH1 0x40 MSTORE DUP1 SWAP3 SWAP2 SWAP1 DUP2 DUP2 MSTORE PUSH1 0x20 ADD DUP3 DUP1 SLOAD PUSH2 0x186 SWAP1 PUSH2 0xAC1 JUMP JUMPDEST DUP1 ISZERO PUSH2 0x1D3 JUMPI DUP1 PUSH1 0x1F LT PUSH2 0x1A8 JUMPI PUSH2 0x100 DUP1 DUP4 SLOAD DIV MUL DUP4 MSTORE SWAP2 PUSH1 0x20 ADD SWAP2 PUSH2 0x1D3 JUMP JUMPDEST DUP3 ADD SWAP2 SWAP1 PUSH1 0x0 MSTORE PUSH1 0x20 PUSH1 0x0 KECCAK256 SWAP1 JUMPDEST DUP2 SLOAD DUP2 MSTORE SWAP1 PUSH1 0x1 ADD SWAP1 PUSH1 0x20 ADD DUP1 DUP4 GT PUSH2 0x1B6 JUMPI DUP3 SWAP1 SUB PUSH1 0x1F AND DUP3 ADD SWAP2 JUMPDEST POP POP POP POP POP SWAP1 DUP1 PUSH1 0x1 ADD PUSH1 0x0 SWAP1 SLOAD SWAP1 PUSH2 0x100 EXP SWAP1 DIV PUSH20 0xFFFFFFFFFFFFFFFFFFFFFFFFFFFFFFFFFFFFFFFF AND SWAP1 DUP1 PUSH1 0x2 ADD DUP1 SLOAD PUSH2 0x20E SWAP1 PUSH2 0xAC1 JUMP JUMPDEST DUP1 PUSH1 0x1F ADD PUSH1 0x20 DUP1 SWAP2 DIV MUL PUSH1 0x20 ADD PUSH1 0x40 MLOAD SWAP1 DUP2 ADD PUSH1 0x40 MSTORE DUP1 SWAP3 SWAP2 SWAP1 DUP2 DUP2 MSTORE PUSH1 0x20 ADD DUP3 DUP1 SLOAD PUSH2 0x23A SWAP1 PUSH2 0xAC1 JUMP JUMPDEST DUP1 ISZERO PUSH2 0x287 JUMPI DUP1 PUSH1 0x1F LT PUSH2 0x25C JUMPI PUSH2 0x100 DUP1 DUP4 SLOAD DIV MUL DUP4 MSTORE SWAP2 PUSH1 0x20 ADD SWAP2 PUSH2 0x287 JUMP JUMPDEST DUP3 ADD SWAP2 SWAP1 PUSH1 0x0 MSTORE PUSH1 0x20 PUSH1 0x0 KECCAK256 SWAP1 JUMPDEST DUP2 SLOAD DUP2 MSTORE SWAP1 PUSH1 0x1 ADD SWAP1 PUSH1 0x20 ADD DUP1 DUP4 GT PUSH2 0x26A JUMPI DUP3 SWAP1 SUB PUSH1 0x1F AND DUP3 ADD SWAP2 JUMPDEST POP POP POP POP POP SWAP1 POP DUP4 JUMP JUMPDEST PUSH1 0x0 PUSH1 0x40 MLOAD DUP1 PUSH1 0x60 ADD PUSH1 0x40 MSTORE DUP1 DUP6 DUP2 MSTORE PUSH1 0x20 ADD DUP5 PUSH20 0xFFFFFFFFFFFFFFFFFFFFFFFFFFFFFFFFFFFFFFFF AND DUP2 MSTORE PUSH1 0x20 ADD DUP4 DUP2 MSTORE POP SWAP1 DUP1 PUSH1 0x1 DUP2 SLOAD ADD DUP1 DUP3 SSTORE DUP1 SWAP2 POP POP PUSH1 0x1 SWAP1 SUB SWAP1 PUSH1 0x0 MSTORE PUSH1 0x20 PUSH1 0x0 KECCAK256 SWAP1 PUSH1 0x3 MUL ADD PUSH1 0x0 SWAP1 SWAP2 SWAP1 SWAP2 SWAP1 SWAP2 POP PUSH1 0x0 DUP3 ADD MLOAD DUP2 PUSH1 0x0 ADD SWAP1 DUP2 PUSH2 0x302 SWAP2 SWAP1 PUSH2 0xC9E JUMP JUMPDEST POP PUSH1 0x20 DUP3 ADD MLOAD DUP2 PUSH1 0x1 ADD PUSH1 0x0 PUSH2 0x100 EXP DUP2 SLOAD DUP2 PUSH20 0xFFFFFFFFFFFFFFFFFFFFFFFFFFFFFFFFFFFFFFFF MUL NOT AND SWAP1 DUP4 PUSH20 0xFFFFFFFFFFFFFFFFFFFFFFFFFFFFFFFFFFFFFFFF AND MUL OR SWAP1 SSTORE POP PUSH1 0x40 DUP3 ADD MLOAD DUP2 PUSH1 0x2 ADD SWAP1 DUP2 PUSH2 0x35F SWAP2 SWAP1 PUSH2 0xC9E JUMP JUMPDEST POP POP POP POP POP POP JUMP JUMPDEST PUSH1 0x1 PUSH1 0x40 MLOAD DUP1 PUSH1 0x40 ADD PUSH1 0x40 MSTORE DUP1 DUP5 DUP2 MSTORE PUSH1 0x20 ADD DUP4 DUP2 MSTORE POP SWAP1 DUP1 PUSH1 0x1 DUP2 SLOAD ADD DUP1 DUP3 SSTORE DUP1 SWAP2 POP POP PUSH1 0x1 SWAP1 SUB SWAP1 PUSH1 0x0 MSTORE PUSH1 0x20 PUSH1 0x0 KECCAK256 SWAP1 PUSH1 0x2 MUL ADD PUSH1 0x0 SWAP1 SWAP2 SWAP1 SWAP2 SWAP1 SWAP2 POP PUSH1 0x0 DUP3 ADD MLOAD DUP2 PUSH1 0x0 ADD SWAP1 DUP2 PUSH2 0x3BC SWAP2 SWAP1 PUSH2 0xC9E JUMP JUMPDEST POP PUSH1 0x20 DUP3 ADD MLOAD DUP2 PUSH1 0x1 ADD SWAP1 DUP2 PUSH2 0x3D2 SWAP2 SWAP1 PUSH2 0xC9E JUMP JUMPDEST POP POP POP DUP1 PUSH1 0x2 DUP4 PUSH1 0x40 MLOAD PUSH2 0x3E6 SWAP2 SWAP1 PUSH2 0xDAC JUMP JUMPDEST SWAP1 DUP2 MSTORE PUSH1 0x20 ADD PUSH1 0x40 MLOAD DUP1 SWAP2 SUB SWAP1 KECCAK256 SWAP1 DUP2 PUSH2 0x400 SWAP2 SWAP1 PUSH2 0xC9E JUMP JUMPDEST POP POP POP JUMP JUMPDEST PUSH1 0x2 DUP2 DUP1 MLOAD PUSH1 0x20 DUP2 ADD DUP3 ADD DUP1 MLOAD DUP5 DUP3 MSTORE PUSH1 0x20 DUP4 ADD PUSH1 0x20 DUP6 ADD KECCAK256 DUP2 DUP4 MSTORE DUP1 SWAP6 POP POP POP POP POP POP PUSH1 0x0 SWAP2 POP SWAP1 POP DUP1 SLOAD PUSH2 0x43A SWAP1 PUSH2 0xAC1 JUMP JUMPDEST DUP1 PUSH1 0x1F ADD PUSH1 0x20 DUP1 SWAP2 DIV MUL PUSH1 0x20 ADD PUSH1 0x40 MLOAD SWAP1 DUP2 ADD PUSH1 0x40 MSTORE DUP1 SWAP3 SWAP2 SWAP1 DUP2 DUP2 MSTORE PUSH1 0x20 ADD DUP3 DUP1 SLOAD PUSH2 0x466 SWAP1 PUSH2 0xAC1 JUMP JUMPDEST DUP1 ISZERO PUSH2 0x4B3 JUMPI DUP1 PUSH1 0x1F LT PUSH2 0x488 JUMPI PUSH2 0x100 DUP1 DUP4 SLOAD DIV MUL DUP4 MSTORE SWAP2 PUSH1 0x20 ADD SWAP2 PUSH2 0x4B3 JUMP JUMPDEST DUP3 ADD SWAP2 SWAP1 PUSH1 0x0 MSTORE PUSH1 0x20 PUSH1 0x0 KECCAK256 SWAP1 JUMPDEST DUP2 SLOAD DUP2 MSTORE SWAP1 PUSH1 0x1 ADD SWAP1 PUSH1 0x20 ADD DUP1 DUP4 GT PUSH2 0x496 JUMPI DUP3 SWAP1 SUB PUSH1 0x1F AND DUP3 ADD SWAP2 JUMPDEST POP POP POP POP POP DUP2 JUMP JUMPDEST PUSH1 0x1 DUP2 DUP2 SLOAD DUP2 LT PUSH2 0x4CB JUMPI PUSH1 0x0 DUP1 REVERT JUMPDEST SWAP1 PUSH1 0x0 MSTORE PUSH1 0x20 PUSH1 0x0 KECCAK256 SWAP1 PUSH1 0x2 MUL ADD PUSH1 0x0 SWAP2 POP SWAP1 POP DUP1 PUSH1 0x0 ADD DUP1 SLOAD PUSH2 0x4EE SWAP1 PUSH2 0xAC1 JUMP JUMPDEST DUP1 PUSH1 0x1F ADD PUSH1 0x20 DUP1 SWAP2 DIV MUL PUSH1 0x20 ADD PUSH1 0x40 MLOAD SWAP1 DUP2 ADD PUSH1 0x40 MSTORE DUP1 SWAP3 SWAP2 SWAP1 DUP2 DUP2 MSTORE PUSH1 0x20 ADD DUP3 DUP1 SLOAD PUSH2 0x51A SWAP1 PUSH2 0xAC1 JUMP JUMPDEST DUP1 ISZERO PUSH2 0x567 JUMPI DUP1 PUSH1 0x1F LT PUSH2 0x53C JUMPI PUSH2 0x100 DUP1 DUP4 SLOAD DIV MUL DUP4 MSTORE SWAP2 PUSH1 0x20 ADD SWAP2 PUSH2 0x567 JUMP JUMPDEST DUP3 ADD SWAP2 SWAP1 PUSH1 0x0 MSTORE PUSH1 0x20 PUSH1 0x0 KECCAK256 SWAP1 JUMPDEST DUP2 SLOAD DUP2 MSTORE SWAP1 PUSH1 0x1 ADD SWAP1 PUSH1 0x20 ADD DUP1 DUP4 GT PUSH2 0x54A JUMPI DUP3 SWAP1 SUB PUSH1 0x1F AND DUP3 ADD SWAP2 JUMPDEST POP POP POP POP POP SWAP1 DUP1 PUSH1 0x1 ADD DUP1 SLOAD PUSH2 0x57C SWAP1 PUSH2 0xAC1 JUMP JUMPDEST DUP1 PUSH1 0x1F ADD PUSH1 0x20 DUP1 SWAP2 DIV MUL PUSH1 0x20 ADD PUSH1 0x40 MLOAD SWAP1 DUP2 ADD PUSH1 0x40 MSTORE DUP1 SWAP3 SWAP2 SWAP1 DUP2 DUP2 MSTORE PUSH1 0x20 ADD DUP3 DUP1 SLOAD PUSH2 0x5A8 SWAP1 PUSH2 0xAC1 JUMP JUMPDEST DUP1 ISZERO PUSH2 0x5F5 JUMPI DUP1 PUSH1 0x1F LT PUSH2 0x5CA JUMPI PUSH2 0x100 DUP1 DUP4 SLOAD DIV MUL DUP4 MSTORE SWAP2 PUSH1 0x20 ADD SWAP2 PUSH2 0x5F5 JUMP JUMPDEST DUP3 ADD SWAP2 SWAP1 PUSH1 0x0 MSTORE PUSH1 0x20 PUSH1 0x0 KECCAK256 SWAP1 JUMPDEST DUP2 SLOAD DUP2 MSTORE SWAP1 PUSH1 0x1 ADD SWAP1 PUSH1 0x20 ADD DUP1 DUP4 GT PUSH2 0x5D8 JUMPI DUP3 SWAP1 SUB PUSH1 0x1F AND DUP3 ADD SWAP2 JUMPDEST POP POP POP POP POP SWAP1 POP DUP3 JUMP JUMPDEST PUSH1 0x0 PUSH1 0x40 MLOAD SWAP1 POP SWAP1 JUMP JUMPDEST PUSH1 0x0 DUP1 REVERT JUMPDEST PUSH1 0x0 DUP1 REVERT JUMPDEST PUSH1 0x0 DUP2 SWAP1 POP SWAP2 SWAP1 POP JUMP JUMPDEST PUSH2 0x626 DUP2 PUSH2 0x613 JUMP JUMPDEST DUP2 EQ PUSH2 0x631 JUMPI PUSH1 0x0 DUP1 REVERT JUMPDEST POP JUMP JUMPDEST PUSH1 0x0 DUP2 CALLDATALOAD SWAP1 POP PUSH2 0x643 DUP2 PUSH2 0x61D JUMP JUMPDEST SWAP3 SWAP2 POP POP JUMP JUMPDEST PUSH1 0x0 PUSH1 0x20 DUP3 DUP5 SUB SLT ISZERO PUSH2 0x65F JUMPI PUSH2 0x65E PUSH2 0x609 JUMP JUMPDEST JUMPDEST PUSH1 0x0 PUSH2 0x66D DUP5 DUP3 DUP6 ADD PUSH2 0x634 JUMP JUMPDEST SWAP2 POP POP SWAP3 SWAP2 POP POP JUMP JUMPDEST PUSH1 0x0 DUP2 MLOAD SWAP1 POP SWAP2 SWAP1 POP JUMP JUMPDEST PUSH1 0x0 DUP3 DUP3 MSTORE PUSH1 0x20 DUP3 ADD SWAP1 POP SWAP3 SWAP2 POP POP JUMP JUMPDEST PUSH1 0x0 JUMPDEST DUP4 DUP2 LT ISZERO PUSH2 0x6B0 JUMPI DUP1 DUP3 ADD MLOAD DUP2 DUP5 ADD MSTORE PUSH1 0x20 DUP2 ADD SWAP1 POP PUSH2 0x695 JUMP JUMPDEST PUSH1 0x0 DUP5 DUP5 ADD MSTORE POP POP POP POP JUMP JUMPDEST PUSH1 0x0 PUSH1 0x1F NOT PUSH1 0x1F DUP4 ADD AND SWAP1 POP SWAP2 SWAP1 POP JUMP JUMPDEST PUSH1 0x0 PUSH2 0x6D8 DUP3 PUSH2 0x676 JUMP JUMPDEST PUSH2 0x6E2 DUP2 DUP6 PUSH2 0x681 JUMP JUMPDEST SWAP4 POP PUSH2 0x6F2 DUP2 DUP6 PUSH1 0x20 DUP7 ADD PUSH2 0x692 JUMP JUMPDEST PUSH2 0x6FB DUP2 PUSH2 0x6BC JUMP JUMPDEST DUP5 ADD SWAP2 POP POP SWAP3 SWAP2 POP POP JUMP JUMPDEST PUSH1 0x0 PUSH20 0xFFFFFFFFFFFFFFFFFFFFFFFFFFFFFFFFFFFFFFFF DUP3 AND SWAP1 POP SWAP2 SWAP1 POP JUMP JUMPDEST PUSH1 0x0 PUSH2 0x731 DUP3 PUSH2 0x706 JUMP JUMPDEST SWAP1 POP SWAP2 SWAP1 POP JUMP JUMPDEST PUSH2 0x741 DUP2 PUSH2 0x726 JUMP JUMPDEST DUP3 MSTORE POP POP JUMP JUMPDEST PUSH1 0x0 PUSH1 0x60 DUP3 ADD SWAP1 POP DUP2 DUP2 SUB PUSH1 0x0 DUP4 ADD MSTORE PUSH2 0x761 DUP2 DUP7 PUSH2 0x6CD JUMP JUMPDEST SWAP1 POP PUSH2 0x770 PUSH1 0x20 DUP4 ADD DUP6 PUSH2 0x738 JUMP JUMPDEST DUP2 DUP2 SUB PUSH1 0x40 DUP4 ADD MSTORE PUSH2 0x782 DUP2 DUP5 PUSH2 0x6CD JUMP JUMPDEST SWAP1 POP SWAP5 SWAP4 POP POP POP POP JUMP JUMPDEST PUSH1 0x0 DUP1 REVERT JUMPDEST PUSH1 0x0 DUP1 REVERT JUMPDEST PUSH32 0x4E487B7100000000000000000000000000000000000000000000000000000000 PUSH1 0x0 MSTORE PUSH1 0x41 PUSH1 0x4 MSTORE PUSH1 0x24 PUSH1 0x0 REVERT JUMPDEST PUSH2 0x7CE DUP3 PUSH2 0x6BC JUMP JUMPDEST DUP2 ADD DUP2 DUP2 LT PUSH8 0xFFFFFFFFFFFFFFFF DUP3 GT OR ISZERO PUSH2 0x7ED JUMPI PUSH2 0x7EC PUSH2 0x796 JUMP JUMPDEST JUMPDEST DUP1 PUSH1 0x40 MSTORE POP POP POP JUMP JUMPDEST PUSH1 0x0 PUSH2 0x800 PUSH2 0x5FF JUMP JUMPDEST SWAP1 POP PUSH2 0x80C DUP3 DUP3 PUSH2 0x7C5 JUMP JUMPDEST SWAP2 SWAP1 POP JUMP JUMPDEST PUSH1 0x0 PUSH8 0xFFFFFFFFFFFFFFFF DUP3 GT ISZERO PUSH2 0x82C JUMPI PUSH2 0x82B PUSH2 0x796 JUMP JUMPDEST JUMPDEST PUSH2 0x835 DUP3 PUSH2 0x6BC JUMP JUMPDEST SWAP1 POP PUSH1 0x20 DUP2 ADD SWAP1 POP SWAP2 SWAP1 POP JUMP JUMPDEST DUP3 DUP2 DUP4 CALLDATACOPY PUSH1 0x0 DUP4 DUP4 ADD MSTORE POP POP POP JUMP JUMPDEST PUSH1 0x0 PUSH2 0x864 PUSH2 0x85F DUP5 PUSH2 0x811 JUMP JUMPDEST PUSH2 0x7F6 JUMP JUMPDEST SWAP1 POP DUP3 DUP2 MSTORE PUSH1 0x20 DUP2 ADD DUP5 DUP5 DUP5 ADD GT ISZERO PUSH2 0x880 JUMPI PUSH2 0x87F PUSH2 0x791 JUMP JUMPDEST JUMPDEST PUSH2 0x88B DUP5 DUP3 DUP6 PUSH2 0x842 JUMP JUMPDEST POP SWAP4 SWAP3 POP POP POP JUMP JUMPDEST PUSH1 0x0 DUP3 PUSH1 0x1F DUP4 ADD SLT PUSH2 0x8A8 JUMPI PUSH2 0x8A7 PUSH2 0x78C JUMP JUMPDEST JUMPDEST DUP2 CALLDATALOAD PUSH2 0x8B8 DUP5 DUP3 PUSH1 0x20 DUP7 ADD PUSH2 0x851 JUMP JUMPDEST SWAP2 POP POP SWAP3 SWAP2 POP POP JUMP JUMPDEST PUSH2 0x8CA DUP2 PUSH2 0x726 JUMP JUMPDEST DUP2 EQ PUSH2 0x8D5 JUMPI PUSH1 0x0 DUP1 REVERT JUMPDEST POP JUMP JUMPDEST PUSH1 0x0 DUP2 CALLDATALOAD SWAP1 POP PUSH2 0x8E7 DUP2 PUSH2 0x8C1 JUMP JUMPDEST SWAP3 SWAP2 POP POP JUMP JUMPDEST PUSH1 0x0 DUP1 PUSH1 0x0 PUSH1 0x60 DUP5 DUP7 SUB SLT ISZERO PUSH2 0x906 JUMPI PUSH2 0x905 PUSH2 0x609 JUMP JUMPDEST JUMPDEST PUSH1 0x0 DUP5 ADD CALLDATALOAD PUSH8 0xFFFFFFFFFFFFFFFF DUP2 GT ISZERO PUSH2 0x924 JUMPI PUSH2 0x923 PUSH2 0x60E JUMP JUMPDEST JUMPDEST PUSH2 0x930 DUP7 DUP3 DUP8 ADD PUSH2 0x893 JUMP JUMPDEST SWAP4 POP POP PUSH1 0x20 PUSH2 0x941 DUP7 DUP3 DUP8 ADD PUSH2 0x8D8 JUMP JUMPDEST SWAP3 POP POP PUSH1 0x40 DUP5 ADD CALLDATALOAD PUSH8 0xFFFFFFFFFFFFFFFF DUP2 GT ISZERO PUSH2 0x962 JUMPI PUSH2 0x961 PUSH2 0x60E JUMP JUMPDEST JUMPDEST PUSH2 0x96E DUP7 DUP3 DUP8 ADD PUSH2 0x893 JUMP JUMPDEST SWAP2 POP POP SWAP3 POP SWAP3 POP SWAP3 JUMP JUMPDEST PUSH1 0x0 DUP1 PUSH1 0x40 DUP4 DUP6 SUB SLT ISZERO PUSH2 0x98F JUMPI PUSH2 0x98E PUSH2 0x609 JUMP JUMPDEST JUMPDEST PUSH1 0x0 DUP4 ADD CALLDATALOAD PUSH8 0xFFFFFFFFFFFFFFFF DUP2 GT ISZERO PUSH2 0x9AD JUMPI PUSH2 0x9AC PUSH2 0x60E JUMP JUMPDEST JUMPDEST PUSH2 0x9B9 DUP6 DUP3 DUP7 ADD PUSH2 0x893 JUMP JUMPDEST SWAP3 POP POP PUSH1 0x20 DUP4 ADD CALLDATALOAD PUSH8 0xFFFFFFFFFFFFFFFF DUP2 GT ISZERO PUSH2 0x9DA JUMPI PUSH2 0x9D9 PUSH2 0x60E JUMP JUMPDEST JUMPDEST PUSH2 0x9E6 DUP6 DUP3 DUP7 ADD PUSH2 0x893 JUMP JUMPDEST SWAP2 POP POP SWAP3 POP SWAP3 SWAP1 POP JUMP JUMPDEST PUSH1 0x0 PUSH1 0x20 DUP3 DUP5 SUB SLT ISZERO PUSH2 0xA06 JUMPI PUSH2 0xA05 PUSH2 0x609 JUMP JUMPDEST JUMPDEST PUSH1 0x0 DUP3 ADD CALLDATALOAD PUSH8 0xFFFFFFFFFFFFFFFF DUP2 GT ISZERO PUSH2 0xA24 JUMPI PUSH2 0xA23 PUSH2 0x60E JUMP JUMPDEST JUMPDEST PUSH2 0xA30 DUP5 DUP3 DUP6 ADD PUSH2 0x893 JUMP JUMPDEST SWAP2 POP POP SWAP3 SWAP2 POP POP JUMP JUMPDEST PUSH1 0x0 PUSH1 0x20 DUP3 ADD SWAP1 POP DUP2 DUP2 SUB PUSH1 0x0 DUP4 ADD MSTORE PUSH2 0xA53 DUP2 DUP5 PUSH2 0x6CD JUMP JUMPDEST SWAP1 POP SWAP3 SWAP2 POP POP JUMP JUMPDEST PUSH1 0x0 PUSH1 0x40 DUP3 ADD SWAP1 POP DUP2 DUP2 SUB PUSH1 0x0 DUP4 ADD MSTORE PUSH2 0xA75 DUP2 DUP6 PUSH2 0x6CD JUMP JUMPDEST SWAP1 POP DUP2 DUP2 SUB PUSH1 0x20 DUP4 ADD MSTORE PUSH2 0xA89 DUP2 DUP5 PUSH2 0x6CD JUMP JUMPDEST SWAP1 POP SWAP4 SWAP3 POP POP POP JUMP JUMPDEST PUSH32 0x4E487B7100000000000000000000000000000000000000000000000000000000 PUSH1 0x0 MSTORE PUSH1 0x22 PUSH1 0x4 MSTORE PUSH1 0x24 PUSH1 0x0 REVERT JUMPDEST PUSH1 0x0 PUSH1 0x2 DUP3 DIV SWAP1 POP PUSH1 0x1 DUP3 AND DUP1 PUSH2 0xAD9 JUMPI PUSH1 0x7F DUP3 AND SWAP2 POP JUMPDEST PUSH1 0x20 DUP3 LT DUP2 SUB PUSH2 0xAEC JUMPI PUSH2 0xAEB PUSH2 0xA92 JUMP JUMPDEST JUMPDEST POP SWAP2 SWAP1 POP JUMP JUMPDEST PUSH1 0x0 DUP2 SWAP1 POP DUP2 PUSH1 0x0 MSTORE PUSH1 0x20 PUSH1 0x0 KECCAK256 SWAP1 POP SWAP2 SWAP1 POP JUMP JUMPDEST PUSH1 0x0 PUSH1 0x20 PUSH1 0x1F DUP4 ADD DIV SWAP1 POP SWAP2 SWAP1 POP JUMP JUMPDEST PUSH1 0x0 DUP3 DUP3 SHL SWAP1 POP SWAP3 SWAP2 POP POP JUMP JUMPDEST PUSH1 0x0 PUSH1 0x8 DUP4 MUL PUSH2 0xB54 PUSH32 0xFFFFFFFFFFFFFFFFFFFFFFFFFFFFFFFFFFFFFFFFFFFFFFFFFFFFFFFFFFFFFFFF DUP3 PUSH2 0xB17 JUMP JUMPDEST PUSH2 0xB5E DUP7 DUP4 PUSH2 0xB17 JUMP JUMPDEST SWAP6 POP DUP1 NOT DUP5 AND SWAP4 POP DUP1 DUP7 AND DUP5 OR SWAP3 POP POP POP SWAP4 SWAP3 POP POP POP JUMP JUMPDEST PUSH1 0x0 DUP2 SWAP1 POP SWAP2 SWAP1 POP JUMP JUMPDEST PUSH1 0x0 PUSH2 0xB9B PUSH2 0xB96 PUSH2 0xB91 DUP5 PUSH2 0x613 JUMP JUMPDEST PUSH2 0xB76 JUMP JUMPDEST PUSH2 0x613 JUMP JUMPDEST SWAP1 POP SWAP2 SWAP1 POP JUMP JUMPDEST PUSH1 0x0 DUP2 SWAP1 POP SWAP2 SWAP1 POP JUMP JUMPDEST PUSH2 0xBB5 DUP4 PUSH2 0xB80 JUMP JUMPDEST PUSH2 0xBC9 PUSH2 0xBC1 DUP3 PUSH2 0xBA2 JUMP JUMPDEST DUP5 DUP5 SLOAD PUSH2 0xB24 JUMP JUMPDEST DUP3 SSTORE POP POP POP POP JUMP JUMPDEST PUSH1 0x0 SWAP1 JUMP JUMPDEST PUSH2 0xBDE PUSH2 0xBD1 JUMP JUMPDEST PUSH2 0xBE9 DUP2 DUP5 DUP5 PUSH2 0xBAC JUMP JUMPDEST POP POP POP JUMP JUMPDEST JUMPDEST DUP2 DUP2 LT ISZERO PUSH2 0xC0D JUMPI PUSH2 0xC02 PUSH1 0x0 DUP3 PUSH2 0xBD6 JUMP JUMPDEST PUSH1 0x1 DUP2 ADD SWAP1 POP PUSH2 0xBEF JUMP JUMPDEST POP POP JUMP JUMPDEST PUSH1 0x1F DUP3 GT ISZERO PUSH2 0xC52 JUMPI PUSH2 0xC23 DUP2 PUSH2 0xAF2 JUMP JUMPDEST PUSH2 0xC2C DUP5 PUSH2 0xB07 JUMP JUMPDEST DUP2 ADD PUSH1 0x20 DUP6 LT ISZERO PUSH2 0xC3B JUMPI DUP2 SWAP1 POP JUMPDEST PUSH2 0xC4F PUSH2 0xC47 DUP6 PUSH2 0xB07 JUMP JUMPDEST DUP4 ADD DUP3 PUSH2 0xBEE JUMP JUMPDEST POP POP JUMPDEST POP POP POP JUMP JUMPDEST PUSH1 0x0 DUP3 DUP3 SHR SWAP1 POP SWAP3 SWAP2 POP POP JUMP JUMPDEST PUSH1 0x0 PUSH2 0xC75 PUSH1 0x0 NOT DUP5 PUSH1 0x8 MUL PUSH2 0xC57 JUMP JUMPDEST NOT DUP1 DUP4 AND SWAP2 POP POP SWAP3 SWAP2 POP POP JUMP JUMPDEST PUSH1 0x0 PUSH2 0xC8E DUP4 DUP4 PUSH2 0xC64 JUMP JUMPDEST SWAP2 POP DUP3 PUSH1 0x2 MUL DUP3 OR SWAP1 POP SWAP3 SWAP2 POP POP JUMP JUMPDEST PUSH2 0xCA7 DUP3 PUSH2 0x676 JUMP JUMPDEST PUSH8 0xFFFFFFFFFFFFFFFF DUP2 GT ISZERO PUSH2 0xCC0 JUMPI PUSH2 0xCBF PUSH2 0x796 JUMP JUMPDEST JUMPDEST PUSH2 0xCCA DUP3 SLOAD PUSH2 0xAC1 JUMP JUMPDEST PUSH2 0xCD5 DUP3 DUP3 DUP6 PUSH2 0xC11 JUMP JUMPDEST PUSH1 0x0 PUSH1 0x20 SWAP1 POP PUSH1 0x1F DUP4 GT PUSH1 0x1 DUP2 EQ PUSH2 0xD08 JUMPI PUSH1 0x0 DUP5 ISZERO PUSH2 0xCF6 JUMPI DUP3 DUP8 ADD MLOAD SWAP1 POP JUMPDEST PUSH2 0xD00 DUP6 DUP3 PUSH2 0xC82 JUMP JUMPDEST DUP7 SSTORE POP PUSH2 0xD68 JUMP JUMPDEST PUSH1 0x1F NOT DUP5 AND PUSH2 0xD16 DUP7 PUSH2 0xAF2 JUMP JUMPDEST PUSH1 0x0 JUMPDEST DUP3 DUP2 LT ISZERO PUSH2 0xD3E JUMPI DUP5 DUP10 ADD MLOAD DUP3 SSTORE PUSH1 0x1 DUP3 ADD SWAP2 POP PUSH1 0x20 DUP6 ADD SWAP5 POP PUSH1 0x20 DUP2 ADD SWAP1 POP PUSH2 0xD19 JUMP JUMPDEST DUP7 DUP4 LT ISZERO PUSH2 0xD5B JUMPI DUP5 DUP10 ADD MLOAD PUSH2 0xD57 PUSH1 0x1F DUP10 AND DUP3 PUSH2 0xC64 JUMP JUMPDEST DUP4 SSTORE POP JUMPDEST PUSH1 0x1 PUSH1 0x2 DUP9 MUL ADD DUP9 SSTORE POP POP POP JUMPDEST POP POP POP POP POP POP JUMP JUMPDEST PUSH1 0x0 DUP2 SWAP1 POP SWAP3 SWAP2 POP POP JUMP JUMPDEST PUSH1 0x0 PUSH2 0xD86 DUP3 PUSH2 0x676 JUMP JUMPDEST PUSH2 0xD90 DUP2 DUP6 PUSH2 0xD70 JUMP JUMPDEST SWAP4 POP PUSH2 0xDA0 DUP2 DUP6 PUSH1 0x20 DUP7 ADD PUSH2 0x692 JUMP JUMPDEST DUP1 DUP5 ADD SWAP2 POP POP SWAP3 SWAP2 POP POP JUMP JUMPDEST PUSH1 0x0 PUSH2 0xDB8 DUP3 DUP5 PUSH2 0xD7B JUMP JUMPDEST SWAP2 POP DUP2 SWAP1 POP SWAP3 SWAP2 POP POP JUMP INVALID LOG2 PUSH5 0x6970667358 0x22 SLT KECCAK256 DELEGATECALL LOG2 0xBB MLOAD 0xE 0xD2 0xC 0x4D 0xB5 MSTORE8 SGT 0xB2 COINBASE 0xB1 INVALID 0x1E 0xC1 MLOAD 0x23 0xB9 0x22 CODECOPY 0x25 REVERT 0x24 0x26 0x4A 0xD4 0xA9 CALLDATASIZE 0x24 SELFBALANCE PUSH5 0x736F6C6343 STOP ADDMOD SGT STOP CALLER "
				},
				"gasEstimates": {
					"creation": {
						"codeDepositCost": "715400",
						"executionCost": "747",
						"totalCost": "716147"
					},
					"external": {
						"addInstitute(string,address,string)": "infinite",
						"addIssuer(string,string)": "infinite",
						"idToIssuerName(string)": "infinite",
						"listOfInstitutes(uint256)": "infinite",
						"listOfIssuers(uint256)": "infinite"
					}
				},
				"methodIdentifiers": {
					"addInstitute(string,address,string)": "8f097415",
					"addIssuer(string,string)": "bf717b7a",
					"idToIssuerName(string)": "d186b1b0",
					"listOfInstitutes(uint256)": "1b258fc0",
					"listOfIssuers(uint256)": "f1e64252"
				}
			},
			"storageLayout": {
				"storage": [
					{
						"astId": 12,
						"contract": "DeCertify.sol:DeCertify",
						"label": "listOfInstitutes",
						"offset": 0,
						"slot": "0",
						"type": "t_array(t_struct(institute)8_storage)dyn_storage"
					},
					{
						"astId": 21,
						"contract": "DeCertify.sol:DeCertify",
						"label": "listOfIssuers",
						"offset": 0,
						"slot": "1",
						"type": "t_array(t_struct(issuer)17_storage)dyn_storage"
					},
					{
						"astId": 25,
						"contract": "DeCertify.sol:DeCertify",
						"label": "idToIssuerName",
						"offset": 0,
						"slot": "2",
						"type": "t_mapping(t_string_memory_ptr,t_string_storage)"
					}
				],
				"types": {
					"t_address": {
						"encoding": "inplace",
						"label": "address",
						"numberOfBytes": "20"
					},
					"t_array(t_struct(institute)8_storage)dyn_storage": {
						"base": "t_struct(institute)8_storage",
						"encoding": "dynamic_array",
						"label": "struct DeCertify.institute[]",
						"numberOfBytes": "32"
					},
					"t_array(t_struct(issuer)17_storage)dyn_storage": {
						"base": "t_struct(issuer)17_storage",
						"encoding": "dynamic_array",
						"label": "struct DeCertify.issuer[]",
						"numberOfBytes": "32"
					},
					"t_mapping(t_string_memory_ptr,t_string_storage)": {
						"encoding": "mapping",
						"key": "t_string_memory_ptr",
						"label": "mapping(string => string)",
						"numberOfBytes": "32",
						"value": "t_string_storage"
					},
					"t_string_memory_ptr": {
						"encoding": "bytes",
						"label": "string",
						"numberOfBytes": "32"
					},
					"t_string_storage": {
						"encoding": "bytes",
						"label": "string",
						"numberOfBytes": "32"
					},
					"t_struct(institute)8_storage": {
						"encoding": "inplace",
						"label": "struct DeCertify.institute",
						"members": [
							{
								"astId": 3,
								"contract": "DeCertify.sol:DeCertify",
								"label": "instituteName",
								"offset": 0,
								"slot": "0",
								"type": "t_string_storage"
							},
							{
								"astId": 5,
								"contract": "DeCertify.sol:DeCertify",
								"label": "instituteWallet",
								"offset": 0,
								"slot": "1",
								"type": "t_address"
							},
							{
								"astId": 7,
								"contract": "DeCertify.sol:DeCertify",
								"label": "instituteCourse",
								"offset": 0,
								"slot": "2",
								"type": "t_string_storage"
							}
						],
						"numberOfBytes": "96"
					},
					"t_struct(issuer)17_storage": {
						"encoding": "inplace",
						"label": "struct DeCertify.issuer",
						"members": [
							{
								"astId": 14,
								"contract": "DeCertify.sol:DeCertify",
								"label": "issuerId",
								"offset": 0,
								"slot": "0",
								"type": "t_string_storage"
							},
							{
								"astId": 16,
								"contract": "DeCertify.sol:DeCertify",
								"label": "issuerName",
								"offset": 0,
								"slot": "1",
								"type": "t_string_storage"
							}
						],
						"numberOfBytes": "64"
					}
				}
			},
			"userdoc": {
				"kind": "user",
				"methods": {},
				"version": 1
			}
		}
	}
}